{
	"FundMe.sol": {
		"FundMe": {
			"abi": [
				{
					"inputs": [],
					"stateMutability": "nonpayable",
					"type": "constructor"
				},
				{
					"inputs": [],
					"name": "MINIMUM_USD",
					"outputs": [
						{
							"internalType": "uint256",
							"name": "",
							"type": "uint256"
						}
					],
					"stateMutability": "view",
					"type": "function"
				},
				{
					"inputs": [
						{
							"internalType": "address",
							"name": "funder",
							"type": "address"
						}
					],
					"name": "addressToAmountFunded",
					"outputs": [
						{
							"internalType": "uint256",
							"name": "amountFunded",
							"type": "uint256"
						}
					],
					"stateMutability": "view",
					"type": "function"
				},
				{
					"inputs": [],
					"name": "fund",
					"outputs": [],
					"stateMutability": "payable",
					"type": "function"
				},
				{
					"inputs": [
						{
							"internalType": "uint256",
							"name": "",
							"type": "uint256"
						}
					],
					"name": "funders",
					"outputs": [
						{
							"internalType": "address",
							"name": "",
							"type": "address"
						}
					],
					"stateMutability": "view",
					"type": "function"
				},
				{
					"inputs": [],
					"name": "i_owner",
					"outputs": [
						{
							"internalType": "address",
							"name": "",
							"type": "address"
						}
					],
					"stateMutability": "view",
					"type": "function"
				},
				{
					"inputs": [],
					"name": "withdraw",
					"outputs": [],
					"stateMutability": "nonpayable",
					"type": "function"
				}
			],
			"devdoc": {
				"kind": "dev",
				"methods": {},
				"version": 1
			},
			"evm": {
				"assembly": "    /* \"FundMe.sol\":201:2248  contract FundMe {... */\n  mstore(0x40, 0xa0)\n    /* \"FundMe.sol\":469:522  constructor() {... */\n  callvalue\n  dup1\n  iszero\n  tag_1\n  jumpi\n  0x00\n  dup1\n  revert\ntag_1:\n  pop\n    /* \"FundMe.sol\":504:514  msg.sender */\n  caller\n    /* \"FundMe.sol\":494:514  i_owner = msg.sender */\n  0xffffffffffffffffffffffffffffffffffffffff\n  and\n  0x80\n  dup2\n  0xffffffffffffffffffffffffffffffffffffffff\n  and\n  dup2\n  mstore\n  pop\n  pop\n    /* \"FundMe.sol\":201:2248  contract FundMe {... */\n  mload(0x80)\n  codecopy(0x00, dataOffset(sub_0), dataSize(sub_0))\n  0x00\n  assignImmutable(\"0x7446b42d7fe1689ec32fc1ca65129d9f21f1979742315d34500a6886f6986bea\")\n  return(0x00, dataSize(sub_0))\nstop\n\nsub_0: assembly {\n        /* \"FundMe.sol\":201:2248  contract FundMe {... */\n      mstore(0x40, 0x80)\n      jumpi(tag_1, lt(calldatasize, 0x04))\n      shr(0xe0, calldataload(0x00))\n      dup1\n      0x3ccfd60b\n      eq\n      tag_2\n      jumpi\n      dup1\n      0x3e47d6f3\n      eq\n      tag_3\n      jumpi\n      dup1\n      0x6b69a592\n      eq\n      tag_4\n      jumpi\n      dup1\n      0xb60d4288\n      eq\n      tag_5\n      jumpi\n      dup1\n      0xdba6335f\n      eq\n      tag_6\n      jumpi\n      dup1\n      0xdc0d3dff\n      eq\n      tag_7\n      jumpi\n    tag_1:\n      0x00\n      dup1\n      revert\n        /* \"FundMe.sol\":1121:2092  function withdraw() public onlyOwner {... */\n    tag_2:\n      callvalue\n      dup1\n      iszero\n      tag_8\n      jumpi\n      0x00\n      dup1\n      revert\n    tag_8:\n      pop\n      tag_9\n      tag_10\n      jump\t// in\n    tag_9:\n      stop\n        /* \"FundMe.sol\":384:460  mapping(address funder => uint256 amountFunded) public addressToAmountFunded */\n    tag_3:\n      callvalue\n      dup1\n      iszero\n      tag_11\n      jumpi\n      0x00\n      dup1\n      revert\n    tag_11:\n      pop\n      tag_12\n      0x04\n      dup1\n      calldatasize\n      sub\n      dup2\n      add\n      swap1\n      tag_13\n      swap2\n      swap1\n      tag_14\n      jump\t// in\n    tag_13:\n      tag_15\n      jump\t// in\n    tag_12:\n      mload(0x40)\n      tag_16\n      swap2\n      swap1\n      tag_17\n      jump\t// in\n    tag_16:\n      mload(0x40)\n      dup1\n      swap2\n      sub\n      swap1\n      return\n        /* \"FundMe.sol\":263:305  uint256 public constant MINIMUM_USD = 5e18 */\n    tag_4:\n      callvalue\n      dup1\n      iszero\n      tag_18\n      jumpi\n      0x00\n      dup1\n      revert\n    tag_18:\n      pop\n      tag_19\n      tag_20\n      jump\t// in\n    tag_19:\n      mload(0x40)\n      tag_21\n      swap2\n      swap1\n      tag_17\n      jump\t// in\n    tag_21:\n      mload(0x40)\n      dup1\n      swap2\n      sub\n      swap1\n      return\n        /* \"FundMe.sol\":530:1113  function fund() public payable {... */\n    tag_5:\n      tag_22\n      tag_23\n      jump\t// in\n    tag_22:\n      stop\n        /* \"FundMe.sol\":345:377  address public immutable i_owner */\n    tag_6:\n      callvalue\n      dup1\n      iszero\n      tag_24\n      jumpi\n      0x00\n      dup1\n      revert\n    tag_24:\n      pop\n      tag_25\n      tag_26\n      jump\t// in\n    tag_25:\n      mload(0x40)\n      tag_27\n      swap2\n      swap1\n      tag_28\n      jump\t// in\n    tag_27:\n      mload(0x40)\n      dup1\n      swap2\n      sub\n      swap1\n      return\n        /* \"FundMe.sol\":314:338  address[] public funders */\n    tag_7:\n      callvalue\n      dup1\n      iszero\n      tag_29\n      jumpi\n      0x00\n      dup1\n      revert\n    tag_29:\n      pop\n      tag_30\n      0x04\n      dup1\n      calldatasize\n      sub\n      dup2\n      add\n      swap1\n      tag_31\n      swap2\n      swap1\n      tag_32\n      jump\t// in\n    tag_31:\n      tag_33\n      jump\t// in\n    tag_30:\n      mload(0x40)\n      tag_34\n      swap2\n      swap1\n      tag_28\n      jump\t// in\n    tag_34:\n      mload(0x40)\n      dup1\n      swap2\n      sub\n      swap1\n      return\n        /* \"FundMe.sol\":1121:2092  function withdraw() public onlyOwner {... */\n    tag_10:\n        /* \"FundMe.sol\":2199:2206  i_owner */\n      immutable(\"0x7446b42d7fe1689ec32fc1ca65129d9f21f1979742315d34500a6886f6986bea\")\n        /* \"FundMe.sol\":2185:2206  msg.sender == i_owner */\n      0xffffffffffffffffffffffffffffffffffffffff\n      and\n        /* \"FundMe.sol\":2185:2195  msg.sender */\n      caller\n        /* \"FundMe.sol\":2185:2206  msg.sender == i_owner */\n      0xffffffffffffffffffffffffffffffffffffffff\n      and\n      eq\n        /* \"FundMe.sol\":2177:2225  require(msg.sender == i_owner, \"Must be owner!\") */\n      tag_36\n      jumpi\n      mload(0x40)\n      0x08c379a000000000000000000000000000000000000000000000000000000000\n      dup2\n      mstore\n      0x04\n      add\n      tag_37\n      swap1\n      tag_38\n      jump\t// in\n    tag_37:\n      mload(0x40)\n      dup1\n      swap2\n      sub\n      swap1\n      revert\n    tag_36:\n        /* \"FundMe.sol\":1239:1258  uint256 funderIndex */\n      0x00\n        /* \"FundMe.sol\":1234:1422  for (uint256 funderIndex = 0; funderIndex < funders.length; funderIndex++) {... */\n    tag_40:\n        /* \"FundMe.sol\":1278:1285  funders */\n      0x00\n        /* \"FundMe.sol\":1278:1292  funders.length */\n      dup1\n      sload\n      swap1\n      pop\n        /* \"FundMe.sol\":1264:1275  funderIndex */\n      dup2\n        /* \"FundMe.sol\":1264:1292  funderIndex < funders.length */\n      lt\n        /* \"FundMe.sol\":1234:1422  for (uint256 funderIndex = 0; funderIndex < funders.length; funderIndex++) {... */\n      iszero\n      tag_41\n      jumpi\n        /* \"FundMe.sol\":1324:1338  address funder */\n      0x00\n        /* \"FundMe.sol\":1341:1348  funders */\n      dup1\n        /* \"FundMe.sol\":1349:1360  funderIndex */\n      dup3\n        /* \"FundMe.sol\":1341:1361  funders[funderIndex] */\n      dup2\n      sload\n      dup2\n      lt\n      tag_43\n      jumpi\n      tag_44\n      tag_45\n      jump\t// in\n    tag_44:\n    tag_43:\n      swap1\n      0x00\n      mstore\n      keccak256(0x00, 0x20)\n      add\n      0x00\n      swap1\n      sload\n      swap1\n      0x0100\n      exp\n      swap1\n      div\n      0xffffffffffffffffffffffffffffffffffffffff\n      and\n        /* \"FundMe.sol\":1324:1361  address funder = funders[funderIndex] */\n      swap1\n      pop\n        /* \"FundMe.sol\":1409:1410  0 */\n      0x00\n        /* \"FundMe.sol\":1377:1398  addressToAmountFunded */\n      0x01\n        /* \"FundMe.sol\":1377:1406  addressToAmountFunded[funder] */\n      0x00\n        /* \"FundMe.sol\":1399:1405  funder */\n      dup4\n        /* \"FundMe.sol\":1377:1406  addressToAmountFunded[funder] */\n      0xffffffffffffffffffffffffffffffffffffffff\n      and\n      0xffffffffffffffffffffffffffffffffffffffff\n      and\n      dup2\n      mstore\n      0x20\n      add\n      swap1\n      dup2\n      mstore\n      0x20\n      add\n      0x00\n      keccak256\n        /* \"FundMe.sol\":1377:1410  addressToAmountFunded[funder] = 0 */\n      dup2\n      swap1\n      sstore\n      pop\n        /* \"FundMe.sol\":1309:1422  {... */\n      pop\n        /* \"FundMe.sol\":1294:1307  funderIndex++ */\n      dup1\n      dup1\n      0x01\n      add\n      swap2\n      pop\n      pop\n        /* \"FundMe.sol\":1234:1422  for (uint256 funderIndex = 0; funderIndex < funders.length; funderIndex++) {... */\n      jump(tag_40)\n    tag_41:\n      pop\n        /* \"FundMe.sol\":1490:1491  0 */\n      0x00\n        /* \"FundMe.sol\":1476:1492  new address[](0) */\n      0xffffffffffffffff\n      dup2\n      gt\n      iszero\n      tag_47\n      jumpi\n      tag_48\n      tag_49\n      jump\t// in\n    tag_48:\n    tag_47:\n      mload(0x40)\n      swap1\n      dup1\n      dup3\n      mstore\n      dup1\n      0x20\n      mul\n      0x20\n      add\n      dup3\n      add\n      0x40\n      mstore\n      dup1\n      iszero\n      tag_50\n      jumpi\n      dup2\n      0x20\n      add\n      0x20\n      dup3\n      mul\n      dup1\n      calldatasize\n      dup4\n      calldatacopy\n      dup1\n      dup3\n      add\n      swap2\n      pop\n      pop\n      swap1\n      pop\n    tag_50:\n      pop\n        /* \"FundMe.sol\":1466:1473  funders */\n      0x00\n        /* \"FundMe.sol\":1466:1492  funders = new address[](0) */\n      swap1\n      dup1\n      mload\n      swap1\n      0x20\n      add\n      swap1\n      tag_51\n      swap3\n      swap2\n      swap1\n      tag_52\n      jump\t// in\n    tag_51:\n      pop\n        /* \"FundMe.sol\":1958:1974  bool callSuccess */\n      0x00\n        /* \"FundMe.sol\":1988:1998  msg.sender */\n      caller\n        /* \"FundMe.sol\":1980:2004  payable(msg.sender).call */\n      0xffffffffffffffffffffffffffffffffffffffff\n      and\n        /* \"FundMe.sol\":2012:2033  address(this).balance */\n      selfbalance\n        /* \"FundMe.sol\":1980:2038  payable(msg.sender).call{value: address(this).balance}(\"\") */\n      mload(0x40)\n      tag_53\n      swap1\n      tag_54\n      jump\t// in\n    tag_53:\n      0x00\n      mload(0x40)\n      dup1\n      dup4\n      sub\n      dup2\n      dup6\n      dup8\n      gas\n      call\n      swap3\n      pop\n      pop\n      pop\n      returndatasize\n      dup1\n      0x00\n      dup2\n      eq\n      tag_57\n      jumpi\n      mload(0x40)\n      swap2\n      pop\n      and(add(returndatasize, 0x3f), not(0x1f))\n      dup3\n      add\n      0x40\n      mstore\n      returndatasize\n      dup3\n      mstore\n      returndatasize\n      0x00\n      0x20\n      dup5\n      add\n      returndatacopy\n      jump(tag_56)\n    tag_57:\n      0x60\n      swap2\n      pop\n    tag_56:\n      pop\n        /* \"FundMe.sol\":1957:2038  (bool callSuccess, ) = payable(msg.sender).call{value: address(this).balance}(\"\") */\n      pop\n      swap1\n      pop\n        /* \"FundMe.sol\":2057:2068  callSuccess */\n      dup1\n        /* \"FundMe.sol\":2049:2084  require(callSuccess, \"CALL FAILED\") */\n      tag_58\n      jumpi\n      mload(0x40)\n      0x08c379a000000000000000000000000000000000000000000000000000000000\n      dup2\n      mstore\n      0x04\n      add\n      tag_59\n      swap1\n      tag_60\n      jump\t// in\n    tag_59:\n      mload(0x40)\n      dup1\n      swap2\n      sub\n      swap1\n      revert\n    tag_58:\n        /* \"FundMe.sol\":1158:2092  {... */\n      pop\n        /* \"FundMe.sol\":1121:2092  function withdraw() public onlyOwner {... */\n      jump\t// out\n        /* \"FundMe.sol\":384:460  mapping(address funder => uint256 amountFunded) public addressToAmountFunded */\n    tag_15:\n      mstore(0x20, 0x01)\n      dup1\n      0x00\n      mstore\n      keccak256(0x00, 0x40)\n      0x00\n      swap2\n      pop\n      swap1\n      pop\n      sload\n      dup2\n      jump\t// out\n        /* \"FundMe.sol\":263:305  uint256 public constant MINIMUM_USD = 5e18 */\n    tag_20:\n        /* \"FundMe.sol\":301:305  5e18 */\n      0x4563918244f40000\n        /* \"FundMe.sol\":263:305  uint256 public constant MINIMUM_USD = 5e18 */\n      dup2\n      jump\t// out\n        /* \"FundMe.sol\":530:1113  function fund() public payable {... */\n    tag_23:\n        /* \"FundMe.sol\":301:305  5e18 */\n      0x4563918244f40000\n        /* \"FundMe.sol\":861:890  msg.value.getConvertionRate() */\n      tag_62\n        /* \"FundMe.sol\":861:870  msg.value */\n      callvalue\n        /* \"FundMe.sol\":861:888  msg.value.getConvertionRate */\n      tag_63\n        /* \"FundMe.sol\":861:890  msg.value.getConvertionRate() */\n      jump\t// in\n    tag_62:\n        /* \"FundMe.sol\":861:905  msg.value.getConvertionRate() >= MINIMUM_USD */\n      lt\n      iszero\n        /* \"FundMe.sol\":851:933  require ( msg.value.getConvertionRate() >= MINIMUM_USD, \"Not enough ETH provided\") */\n      tag_64\n      jumpi\n      mload(0x40)\n      0x08c379a000000000000000000000000000000000000000000000000000000000\n      dup2\n      mstore\n      0x04\n      add\n      tag_65\n      swap1\n      tag_66\n      jump\t// in\n    tag_65:\n      mload(0x40)\n      dup1\n      swap2\n      sub\n      swap1\n      revert\n    tag_64:\n        /* \"FundMe.sol\":984:991  funders */\n      0x00\n        /* \"FundMe.sol\":997:1007  msg.sender */\n      caller\n        /* \"FundMe.sol\":984:1008  funders.push(msg.sender) */\n      swap1\n      dup1\n      0x01\n      dup2\n      sload\n      add\n      dup1\n      dup3\n      sstore\n      dup1\n      swap2\n      pop\n      pop\n      0x01\n      swap1\n      sub\n      swap1\n      0x00\n      mstore\n      keccak256(0x00, 0x20)\n      add\n      0x00\n      swap1\n      swap2\n      swap1\n      swap2\n      swap1\n      swap2\n      0x0100\n      exp\n      dup2\n      sload\n      dup2\n      0xffffffffffffffffffffffffffffffffffffffff\n      mul\n      not\n      and\n      swap1\n      dup4\n      0xffffffffffffffffffffffffffffffffffffffff\n      and\n      mul\n      or\n      swap1\n      sstore\n      pop\n        /* \"FundMe.sol\":1056:1065  msg.value */\n      callvalue\n        /* \"FundMe.sol\":1019:1040  addressToAmountFunded */\n      0x01\n        /* \"FundMe.sol\":1019:1052  addressToAmountFunded[msg.sender] */\n      0x00\n        /* \"FundMe.sol\":1041:1051  msg.sender */\n      caller\n        /* \"FundMe.sol\":1019:1052  addressToAmountFunded[msg.sender] */\n      0xffffffffffffffffffffffffffffffffffffffff\n      and\n      0xffffffffffffffffffffffffffffffffffffffff\n      and\n      dup2\n      mstore\n      0x20\n      add\n      swap1\n      dup2\n      mstore\n      0x20\n      add\n      0x00\n      keccak256\n      0x00\n        /* \"FundMe.sol\":1019:1065  addressToAmountFunded[msg.sender] += msg.value */\n      dup3\n      dup3\n      sload\n      tag_68\n      swap2\n      swap1\n      tag_69\n      jump\t// in\n    tag_68:\n      swap3\n      pop\n      pop\n      dup2\n      swap1\n      sstore\n      pop\n        /* \"FundMe.sol\":530:1113  function fund() public payable {... */\n      jump\t// out\n        /* \"FundMe.sol\":345:377  address public immutable i_owner */\n    tag_26:\n      immutable(\"0x7446b42d7fe1689ec32fc1ca65129d9f21f1979742315d34500a6886f6986bea\")\n      dup2\n      jump\t// out\n        /* \"FundMe.sol\":314:338  address[] public funders */\n    tag_33:\n      0x00\n      dup2\n      dup2\n      sload\n      dup2\n      lt\n      tag_70\n      jumpi\n      0x00\n      dup1\n      revert\n    tag_70:\n      swap1\n      0x00\n      mstore\n      keccak256(0x00, 0x20)\n      add\n      0x00\n      swap2\n      pop\n      sload\n      swap1\n      0x0100\n      exp\n      swap1\n      div\n      0xffffffffffffffffffffffffffffffffffffffff\n      and\n      dup2\n      jump\t// out\n        /* \"PriceConverter.sol\":650:926  function getConvertionRate(uint256 ethAmount) internal view returns (uint256) {... */\n    tag_63:\n        /* \"PriceConverter.sol\":719:726  uint256 */\n      0x00\n        /* \"PriceConverter.sol\":739:755  uint256 ethPrice */\n      dup1\n        /* \"PriceConverter.sol\":758:768  getPrice() */\n      tag_73\n        /* \"PriceConverter.sol\":758:766  getPrice */\n      tag_74\n        /* \"PriceConverter.sol\":758:768  getPrice() */\n      jump\t// in\n    tag_73:\n        /* \"PriceConverter.sol\":739:768  uint256 ethPrice = getPrice() */\n      swap1\n      pop\n        /* \"PriceConverter.sol\":832:854  uint256 ethAmountInUsd */\n      0x00\n        /* \"PriceConverter.sol\":882:886  1e18 */\n      0x0de0b6b3a7640000\n        /* \"PriceConverter.sol\":869:878  ethAmount */\n      dup5\n        /* \"PriceConverter.sol\":858:866  ethPrice */\n      dup4\n        /* \"PriceConverter.sol\":858:878  ethPrice * ethAmount */\n      tag_75\n      swap2\n      swap1\n      tag_76\n      jump\t// in\n    tag_75:\n        /* \"PriceConverter.sol\":857:886  (ethPrice * ethAmount) / 1e18 */\n      tag_77\n      swap2\n      swap1\n      tag_78\n      jump\t// in\n    tag_77:\n        /* \"PriceConverter.sol\":832:886  uint256 ethAmountInUsd = (ethPrice * ethAmount) / 1e18 */\n      swap1\n      pop\n        /* \"PriceConverter.sol\":904:918  ethAmountInUsd */\n      dup1\n        /* \"PriceConverter.sol\":897:918  return ethAmountInUsd */\n      swap3\n      pop\n      pop\n      pop\n        /* \"PriceConverter.sol\":650:926  function getConvertionRate(uint256 ethAmount) internal view returns (uint256) {... */\n      swap2\n      swap1\n      pop\n      jump\t// out\n        /* \"PriceConverter.sol\":208:642  function getPrice() internal view returns (uint256) {... */\n    tag_74:\n        /* \"PriceConverter.sol\":251:258  uint256 */\n      0x00\n        /* \"PriceConverter.sol\":437:468  AggregatorV3Interface priceFeed */\n      dup1\n        /* \"PriceConverter.sol\":493:535  0x694AA1769357215DE4FAC081bf1f309aDC325306 */\n      0x694aa1769357215de4fac081bf1f309adc325306\n        /* \"PriceConverter.sol\":437:536  AggregatorV3Interface priceFeed = AggregatorV3Interface(0x694AA1769357215DE4FAC081bf1f309aDC325306) */\n      swap1\n      pop\n        /* \"PriceConverter.sol\":549:561  int256 price */\n      0x00\n        /* \"PriceConverter.sol\":568:577  priceFeed */\n      dup2\n        /* \"PriceConverter.sol\":568:593  priceFeed.latestRoundData */\n      0xffffffffffffffffffffffffffffffffffffffff\n      and\n      0xfeaf968c\n        /* \"PriceConverter.sol\":568:595  priceFeed.latestRoundData() */\n      mload(0x40)\n      dup2\n      0xffffffff\n      and\n      0xe0\n      shl\n      dup2\n      mstore\n      0x04\n      add\n      0xa0\n      mload(0x40)\n      dup1\n      dup4\n      sub\n      dup2\n      dup7\n      gas\n      staticcall\n      iszero\n      dup1\n      iszero\n      tag_81\n      jumpi\n      returndatasize\n      0x00\n      dup1\n      returndatacopy\n      revert(0x00, returndatasize)\n    tag_81:\n      pop\n      pop\n      pop\n      pop\n      mload(0x40)\n      returndatasize\n      not(0x1f)\n      0x1f\n      dup3\n      add\n      and\n      dup3\n      add\n      dup1\n      0x40\n      mstore\n      pop\n      dup2\n      add\n      swap1\n      tag_82\n      swap2\n      swap1\n      tag_83\n      jump\t// in\n    tag_82:\n        /* \"PriceConverter.sol\":547:595  (,int256 price,,,) = priceFeed.latestRoundData() */\n      pop\n      pop\n      pop\n      swap2\n      pop\n      pop\n        /* \"PriceConverter.sol\":629:633  1e10 */\n      0x02540be400\n        /* \"PriceConverter.sol\":621:626  price */\n      dup2\n        /* \"PriceConverter.sol\":621:633  price * 1e10 */\n      tag_84\n      swap2\n      swap1\n      tag_85\n      jump\t// in\n    tag_84:\n        /* \"PriceConverter.sol\":606:634  return uint256(price * 1e10) */\n      swap3\n      pop\n      pop\n      pop\n        /* \"PriceConverter.sol\":208:642  function getPrice() internal view returns (uint256) {... */\n      swap1\n      jump\t// out\n    tag_52:\n      dup3\n      dup1\n      sload\n      dup3\n      dup3\n      sstore\n      swap1\n      0x00\n      mstore\n      keccak256(0x00, 0x20)\n      swap1\n      dup2\n      add\n      swap3\n      dup3\n      iszero\n      tag_86\n      jumpi\n      swap2\n      0x20\n      mul\n      dup3\n      add\n    tag_87:\n      dup3\n      dup2\n      gt\n      iszero\n      tag_88\n      jumpi\n      dup3\n      mload\n      dup3\n      exp(0x0100, 0x00)\n      dup2\n      sload\n      dup2\n      0xffffffffffffffffffffffffffffffffffffffff\n      mul\n      not\n      and\n      swap1\n      dup4\n      0xffffffffffffffffffffffffffffffffffffffff\n      and\n      mul\n      or\n      swap1\n      sstore\n      pop\n      swap2\n      0x20\n      add\n      swap2\n      swap1\n      0x01\n      add\n      swap1\n      jump(tag_87)\n    tag_88:\n    tag_86:\n      pop\n      swap1\n      pop\n      tag_89\n      swap2\n      swap1\n      tag_90\n      jump\t// in\n    tag_89:\n      pop\n      swap1\n      jump\t// out\n    tag_90:\n    tag_91:\n      dup1\n      dup3\n      gt\n      iszero\n      tag_92\n      jumpi\n      0x00\n      dup2\n      0x00\n      swap1\n      sstore\n      pop\n      0x01\n      add\n      jump(tag_91)\n    tag_92:\n      pop\n      swap1\n      jump\t// out\n        /* \"#utility.yul\":88:205   */\n    tag_94:\n        /* \"#utility.yul\":197:198   */\n      0x00\n        /* \"#utility.yul\":194:195   */\n      dup1\n        /* \"#utility.yul\":187:199   */\n      revert\n        /* \"#utility.yul\":334:460   */\n    tag_96:\n        /* \"#utility.yul\":371:378   */\n      0x00\n        /* \"#utility.yul\":411:453   */\n      0xffffffffffffffffffffffffffffffffffffffff\n        /* \"#utility.yul\":404:409   */\n      dup3\n        /* \"#utility.yul\":400:454   */\n      and\n        /* \"#utility.yul\":389:454   */\n      swap1\n      pop\n        /* \"#utility.yul\":334:460   */\n      swap2\n      swap1\n      pop\n      jump\t// out\n        /* \"#utility.yul\":466:562   */\n    tag_97:\n        /* \"#utility.yul\":503:510   */\n      0x00\n        /* \"#utility.yul\":532:556   */\n      tag_130\n        /* \"#utility.yul\":550:555   */\n      dup3\n        /* \"#utility.yul\":532:556   */\n      tag_96\n      jump\t// in\n    tag_130:\n        /* \"#utility.yul\":521:556   */\n      swap1\n      pop\n        /* \"#utility.yul\":466:562   */\n      swap2\n      swap1\n      pop\n      jump\t// out\n        /* \"#utility.yul\":568:690   */\n    tag_98:\n        /* \"#utility.yul\":641:665   */\n      tag_132\n        /* \"#utility.yul\":659:664   */\n      dup2\n        /* \"#utility.yul\":641:665   */\n      tag_97\n      jump\t// in\n    tag_132:\n        /* \"#utility.yul\":634:639   */\n      dup2\n        /* \"#utility.yul\":631:666   */\n      eq\n        /* \"#utility.yul\":621:684   */\n      tag_133\n      jumpi\n        /* \"#utility.yul\":680:681   */\n      0x00\n        /* \"#utility.yul\":677:678   */\n      dup1\n        /* \"#utility.yul\":670:682   */\n      revert\n        /* \"#utility.yul\":621:684   */\n    tag_133:\n        /* \"#utility.yul\":568:690   */\n      pop\n      jump\t// out\n        /* \"#utility.yul\":696:835   */\n    tag_99:\n        /* \"#utility.yul\":742:747   */\n      0x00\n        /* \"#utility.yul\":780:786   */\n      dup2\n        /* \"#utility.yul\":767:787   */\n      calldataload\n        /* \"#utility.yul\":758:787   */\n      swap1\n      pop\n        /* \"#utility.yul\":796:829   */\n      tag_135\n        /* \"#utility.yul\":823:828   */\n      dup2\n        /* \"#utility.yul\":796:829   */\n      tag_98\n      jump\t// in\n    tag_135:\n        /* \"#utility.yul\":696:835   */\n      swap3\n      swap2\n      pop\n      pop\n      jump\t// out\n        /* \"#utility.yul\":841:1170   */\n    tag_14:\n        /* \"#utility.yul\":900:906   */\n      0x00\n        /* \"#utility.yul\":949:951   */\n      0x20\n        /* \"#utility.yul\":937:946   */\n      dup3\n        /* \"#utility.yul\":928:935   */\n      dup5\n        /* \"#utility.yul\":924:947   */\n      sub\n        /* \"#utility.yul\":920:952   */\n      slt\n        /* \"#utility.yul\":917:1036   */\n      iszero\n      tag_137\n      jumpi\n        /* \"#utility.yul\":955:1034   */\n      tag_138\n      tag_94\n      jump\t// in\n    tag_138:\n        /* \"#utility.yul\":917:1036   */\n    tag_137:\n        /* \"#utility.yul\":1075:1076   */\n      0x00\n        /* \"#utility.yul\":1100:1153   */\n      tag_139\n        /* \"#utility.yul\":1145:1152   */\n      dup5\n        /* \"#utility.yul\":1136:1142   */\n      dup3\n        /* \"#utility.yul\":1125:1134   */\n      dup6\n        /* \"#utility.yul\":1121:1143   */\n      add\n        /* \"#utility.yul\":1100:1153   */\n      tag_99\n      jump\t// in\n    tag_139:\n        /* \"#utility.yul\":1090:1153   */\n      swap2\n      pop\n        /* \"#utility.yul\":1046:1163   */\n      pop\n        /* \"#utility.yul\":841:1170   */\n      swap3\n      swap2\n      pop\n      pop\n      jump\t// out\n        /* \"#utility.yul\":1176:1253   */\n    tag_100:\n        /* \"#utility.yul\":1213:1220   */\n      0x00\n        /* \"#utility.yul\":1242:1247   */\n      dup2\n        /* \"#utility.yul\":1231:1247   */\n      swap1\n      pop\n        /* \"#utility.yul\":1176:1253   */\n      swap2\n      swap1\n      pop\n      jump\t// out\n        /* \"#utility.yul\":1259:1377   */\n    tag_101:\n        /* \"#utility.yul\":1346:1370   */\n      tag_142\n        /* \"#utility.yul\":1364:1369   */\n      dup2\n        /* \"#utility.yul\":1346:1370   */\n      tag_100\n      jump\t// in\n    tag_142:\n        /* \"#utility.yul\":1341:1344   */\n      dup3\n        /* \"#utility.yul\":1334:1371   */\n      mstore\n        /* \"#utility.yul\":1259:1377   */\n      pop\n      pop\n      jump\t// out\n        /* \"#utility.yul\":1383:1605   */\n    tag_17:\n        /* \"#utility.yul\":1476:1480   */\n      0x00\n        /* \"#utility.yul\":1514:1516   */\n      0x20\n        /* \"#utility.yul\":1503:1512   */\n      dup3\n        /* \"#utility.yul\":1499:1517   */\n      add\n        /* \"#utility.yul\":1491:1517   */\n      swap1\n      pop\n        /* \"#utility.yul\":1527:1598   */\n      tag_144\n        /* \"#utility.yul\":1595:1596   */\n      0x00\n        /* \"#utility.yul\":1584:1593   */\n      dup4\n        /* \"#utility.yul\":1580:1597   */\n      add\n        /* \"#utility.yul\":1571:1577   */\n      dup5\n        /* \"#utility.yul\":1527:1598   */\n      tag_101\n      jump\t// in\n    tag_144:\n        /* \"#utility.yul\":1383:1605   */\n      swap3\n      swap2\n      pop\n      pop\n      jump\t// out\n        /* \"#utility.yul\":1611:1729   */\n    tag_102:\n        /* \"#utility.yul\":1698:1722   */\n      tag_146\n        /* \"#utility.yul\":1716:1721   */\n      dup2\n        /* \"#utility.yul\":1698:1722   */\n      tag_97\n      jump\t// in\n    tag_146:\n        /* \"#utility.yul\":1693:1696   */\n      dup3\n        /* \"#utility.yul\":1686:1723   */\n      mstore\n        /* \"#utility.yul\":1611:1729   */\n      pop\n      pop\n      jump\t// out\n        /* \"#utility.yul\":1735:1957   */\n    tag_28:\n        /* \"#utility.yul\":1828:1832   */\n      0x00\n        /* \"#utility.yul\":1866:1868   */\n      0x20\n        /* \"#utility.yul\":1855:1864   */\n      dup3\n        /* \"#utility.yul\":1851:1869   */\n      add\n        /* \"#utility.yul\":1843:1869   */\n      swap1\n      pop\n        /* \"#utility.yul\":1879:1950   */\n      tag_148\n        /* \"#utility.yul\":1947:1948   */\n      0x00\n        /* \"#utility.yul\":1936:1945   */\n      dup4\n        /* \"#utility.yul\":1932:1949   */\n      add\n        /* \"#utility.yul\":1923:1929   */\n      dup5\n        /* \"#utility.yul\":1879:1950   */\n      tag_102\n      jump\t// in\n    tag_148:\n        /* \"#utility.yul\":1735:1957   */\n      swap3\n      swap2\n      pop\n      pop\n      jump\t// out\n        /* \"#utility.yul\":1963:2085   */\n    tag_103:\n        /* \"#utility.yul\":2036:2060   */\n      tag_150\n        /* \"#utility.yul\":2054:2059   */\n      dup2\n        /* \"#utility.yul\":2036:2060   */\n      tag_100\n      jump\t// in\n    tag_150:\n        /* \"#utility.yul\":2029:2034   */\n      dup2\n        /* \"#utility.yul\":2026:2061   */\n      eq\n        /* \"#utility.yul\":2016:2079   */\n      tag_151\n      jumpi\n        /* \"#utility.yul\":2075:2076   */\n      0x00\n        /* \"#utility.yul\":2072:2073   */\n      dup1\n        /* \"#utility.yul\":2065:2077   */\n      revert\n        /* \"#utility.yul\":2016:2079   */\n    tag_151:\n        /* \"#utility.yul\":1963:2085   */\n      pop\n      jump\t// out\n        /* \"#utility.yul\":2091:2230   */\n    tag_104:\n        /* \"#utility.yul\":2137:2142   */\n      0x00\n        /* \"#utility.yul\":2175:2181   */\n      dup2\n        /* \"#utility.yul\":2162:2182   */\n      calldataload\n        /* \"#utility.yul\":2153:2182   */\n      swap1\n      pop\n        /* \"#utility.yul\":2191:2224   */\n      tag_153\n        /* \"#utility.yul\":2218:2223   */\n      dup2\n        /* \"#utility.yul\":2191:2224   */\n      tag_103\n      jump\t// in\n    tag_153:\n        /* \"#utility.yul\":2091:2230   */\n      swap3\n      swap2\n      pop\n      pop\n      jump\t// out\n        /* \"#utility.yul\":2236:2565   */\n    tag_32:\n        /* \"#utility.yul\":2295:2301   */\n      0x00\n        /* \"#utility.yul\":2344:2346   */\n      0x20\n        /* \"#utility.yul\":2332:2341   */\n      dup3\n        /* \"#utility.yul\":2323:2330   */\n      dup5\n        /* \"#utility.yul\":2319:2342   */\n      sub\n        /* \"#utility.yul\":2315:2347   */\n      slt\n        /* \"#utility.yul\":2312:2431   */\n      iszero\n      tag_155\n      jumpi\n        /* \"#utility.yul\":2350:2429   */\n      tag_156\n      tag_94\n      jump\t// in\n    tag_156:\n        /* \"#utility.yul\":2312:2431   */\n    tag_155:\n        /* \"#utility.yul\":2470:2471   */\n      0x00\n        /* \"#utility.yul\":2495:2548   */\n      tag_157\n        /* \"#utility.yul\":2540:2547   */\n      dup5\n        /* \"#utility.yul\":2531:2537   */\n      dup3\n        /* \"#utility.yul\":2520:2529   */\n      dup6\n        /* \"#utility.yul\":2516:2538   */\n      add\n        /* \"#utility.yul\":2495:2548   */\n      tag_104\n      jump\t// in\n    tag_157:\n        /* \"#utility.yul\":2485:2548   */\n      swap2\n      pop\n        /* \"#utility.yul\":2441:2558   */\n      pop\n        /* \"#utility.yul\":2236:2565   */\n      swap3\n      swap2\n      pop\n      pop\n      jump\t// out\n        /* \"#utility.yul\":2571:2740   */\n    tag_105:\n        /* \"#utility.yul\":2655:2666   */\n      0x00\n        /* \"#utility.yul\":2689:2695   */\n      dup3\n        /* \"#utility.yul\":2684:2687   */\n      dup3\n        /* \"#utility.yul\":2677:2696   */\n      mstore\n        /* \"#utility.yul\":2729:2733   */\n      0x20\n        /* \"#utility.yul\":2724:2727   */\n      dup3\n        /* \"#utility.yul\":2720:2734   */\n      add\n        /* \"#utility.yul\":2705:2734   */\n      swap1\n      pop\n        /* \"#utility.yul\":2571:2740   */\n      swap3\n      swap2\n      pop\n      pop\n      jump\t// out\n        /* \"#utility.yul\":2746:2910   */\n    tag_106:\n        /* \"#utility.yul\":2886:2902   */\n      0x4d757374206265206f776e657221000000000000000000000000000000000000\n        /* \"#utility.yul\":2882:2883   */\n      0x00\n        /* \"#utility.yul\":2874:2880   */\n      dup3\n        /* \"#utility.yul\":2870:2884   */\n      add\n        /* \"#utility.yul\":2863:2903   */\n      mstore\n        /* \"#utility.yul\":2746:2910   */\n      pop\n      jump\t// out\n        /* \"#utility.yul\":2916:3282   */\n    tag_107:\n        /* \"#utility.yul\":3058:3061   */\n      0x00\n        /* \"#utility.yul\":3079:3146   */\n      tag_161\n        /* \"#utility.yul\":3143:3145   */\n      0x0e\n        /* \"#utility.yul\":3138:3141   */\n      dup4\n        /* \"#utility.yul\":3079:3146   */\n      tag_105\n      jump\t// in\n    tag_161:\n        /* \"#utility.yul\":3072:3146   */\n      swap2\n      pop\n        /* \"#utility.yul\":3155:3248   */\n      tag_162\n        /* \"#utility.yul\":3244:3247   */\n      dup3\n        /* \"#utility.yul\":3155:3248   */\n      tag_106\n      jump\t// in\n    tag_162:\n        /* \"#utility.yul\":3273:3275   */\n      0x20\n        /* \"#utility.yul\":3268:3271   */\n      dup3\n        /* \"#utility.yul\":3264:3276   */\n      add\n        /* \"#utility.yul\":3257:3276   */\n      swap1\n      pop\n        /* \"#utility.yul\":2916:3282   */\n      swap2\n      swap1\n      pop\n      jump\t// out\n        /* \"#utility.yul\":3288:3707   */\n    tag_38:\n        /* \"#utility.yul\":3454:3458   */\n      0x00\n        /* \"#utility.yul\":3492:3494   */\n      0x20\n        /* \"#utility.yul\":3481:3490   */\n      dup3\n        /* \"#utility.yul\":3477:3495   */\n      add\n        /* \"#utility.yul\":3469:3495   */\n      swap1\n      pop\n        /* \"#utility.yul\":3541:3550   */\n      dup2\n        /* \"#utility.yul\":3535:3539   */\n      dup2\n        /* \"#utility.yul\":3531:3551   */\n      sub\n        /* \"#utility.yul\":3527:3528   */\n      0x00\n        /* \"#utility.yul\":3516:3525   */\n      dup4\n        /* \"#utility.yul\":3512:3529   */\n      add\n        /* \"#utility.yul\":3505:3552   */\n      mstore\n        /* \"#utility.yul\":3569:3700   */\n      tag_164\n        /* \"#utility.yul\":3695:3699   */\n      dup2\n        /* \"#utility.yul\":3569:3700   */\n      tag_107\n      jump\t// in\n    tag_164:\n        /* \"#utility.yul\":3561:3700   */\n      swap1\n      pop\n        /* \"#utility.yul\":3288:3707   */\n      swap2\n      swap1\n      pop\n      jump\t// out\n        /* \"#utility.yul\":3713:3893   */\n    tag_45:\n        /* \"#utility.yul\":3761:3838   */\n      0x4e487b7100000000000000000000000000000000000000000000000000000000\n        /* \"#utility.yul\":3758:3759   */\n      0x00\n        /* \"#utility.yul\":3751:3839   */\n      mstore\n        /* \"#utility.yul\":3858:3862   */\n      0x32\n        /* \"#utility.yul\":3855:3856   */\n      0x04\n        /* \"#utility.yul\":3848:3863   */\n      mstore\n        /* \"#utility.yul\":3882:3886   */\n      0x24\n        /* \"#utility.yul\":3879:3880   */\n      0x00\n        /* \"#utility.yul\":3872:3887   */\n      revert\n        /* \"#utility.yul\":3899:4079   */\n    tag_49:\n        /* \"#utility.yul\":3947:4024   */\n      0x4e487b7100000000000000000000000000000000000000000000000000000000\n        /* \"#utility.yul\":3944:3945   */\n      0x00\n        /* \"#utility.yul\":3937:4025   */\n      mstore\n        /* \"#utility.yul\":4044:4048   */\n      0x41\n        /* \"#utility.yul\":4041:4042   */\n      0x04\n        /* \"#utility.yul\":4034:4049   */\n      mstore\n        /* \"#utility.yul\":4068:4072   */\n      0x24\n        /* \"#utility.yul\":4065:4066   */\n      0x00\n        /* \"#utility.yul\":4058:4073   */\n      revert\n        /* \"#utility.yul\":4085:4232   */\n    tag_108:\n        /* \"#utility.yul\":4186:4197   */\n      0x00\n        /* \"#utility.yul\":4223:4226   */\n      dup2\n        /* \"#utility.yul\":4208:4226   */\n      swap1\n      pop\n        /* \"#utility.yul\":4085:4232   */\n      swap3\n      swap2\n      pop\n      pop\n      jump\t// out\n        /* \"#utility.yul\":4238:4352   */\n    tag_109:\n      pop\n      jump\t// out\n        /* \"#utility.yul\":4358:4756   */\n    tag_110:\n        /* \"#utility.yul\":4517:4520   */\n      0x00\n        /* \"#utility.yul\":4538:4621   */\n      tag_170\n        /* \"#utility.yul\":4619:4620   */\n      0x00\n        /* \"#utility.yul\":4614:4617   */\n      dup4\n        /* \"#utility.yul\":4538:4621   */\n      tag_108\n      jump\t// in\n    tag_170:\n        /* \"#utility.yul\":4531:4621   */\n      swap2\n      pop\n        /* \"#utility.yul\":4630:4723   */\n      tag_171\n        /* \"#utility.yul\":4719:4722   */\n      dup3\n        /* \"#utility.yul\":4630:4723   */\n      tag_109\n      jump\t// in\n    tag_171:\n        /* \"#utility.yul\":4748:4749   */\n      0x00\n        /* \"#utility.yul\":4743:4746   */\n      dup3\n        /* \"#utility.yul\":4739:4750   */\n      add\n        /* \"#utility.yul\":4732:4750   */\n      swap1\n      pop\n        /* \"#utility.yul\":4358:4756   */\n      swap2\n      swap1\n      pop\n      jump\t// out\n        /* \"#utility.yul\":4762:5141   */\n    tag_54:\n        /* \"#utility.yul\":4946:4949   */\n      0x00\n        /* \"#utility.yul\":4968:5115   */\n      tag_173\n        /* \"#utility.yul\":5111:5114   */\n      dup3\n        /* \"#utility.yul\":4968:5115   */\n      tag_110\n      jump\t// in\n    tag_173:\n        /* \"#utility.yul\":4961:5115   */\n      swap2\n      pop\n        /* \"#utility.yul\":5132:5135   */\n      dup2\n        /* \"#utility.yul\":5125:5135   */\n      swap1\n      pop\n        /* \"#utility.yul\":4762:5141   */\n      swap2\n      swap1\n      pop\n      jump\t// out\n        /* \"#utility.yul\":5147:5308   */\n    tag_111:\n        /* \"#utility.yul\":5287:5300   */\n      0x43414c4c204641494c4544000000000000000000000000000000000000000000\n        /* \"#utility.yul\":5283:5284   */\n      0x00\n        /* \"#utility.yul\":5275:5281   */\n      dup3\n        /* \"#utility.yul\":5271:5285   */\n      add\n        /* \"#utility.yul\":5264:5301   */\n      mstore\n        /* \"#utility.yul\":5147:5308   */\n      pop\n      jump\t// out\n        /* \"#utility.yul\":5314:5680   */\n    tag_112:\n        /* \"#utility.yul\":5456:5459   */\n      0x00\n        /* \"#utility.yul\":5477:5544   */\n      tag_176\n        /* \"#utility.yul\":5541:5543   */\n      0x0b\n        /* \"#utility.yul\":5536:5539   */\n      dup4\n        /* \"#utility.yul\":5477:5544   */\n      tag_105\n      jump\t// in\n    tag_176:\n        /* \"#utility.yul\":5470:5544   */\n      swap2\n      pop\n        /* \"#utility.yul\":5553:5646   */\n      tag_177\n        /* \"#utility.yul\":5642:5645   */\n      dup3\n        /* \"#utility.yul\":5553:5646   */\n      tag_111\n      jump\t// in\n    tag_177:\n        /* \"#utility.yul\":5671:5673   */\n      0x20\n        /* \"#utility.yul\":5666:5669   */\n      dup3\n        /* \"#utility.yul\":5662:5674   */\n      add\n        /* \"#utility.yul\":5655:5674   */\n      swap1\n      pop\n        /* \"#utility.yul\":5314:5680   */\n      swap2\n      swap1\n      pop\n      jump\t// out\n        /* \"#utility.yul\":5686:6105   */\n    tag_60:\n        /* \"#utility.yul\":5852:5856   */\n      0x00\n        /* \"#utility.yul\":5890:5892   */\n      0x20\n        /* \"#utility.yul\":5879:5888   */\n      dup3\n        /* \"#utility.yul\":5875:5893   */\n      add\n        /* \"#utility.yul\":5867:5893   */\n      swap1\n      pop\n        /* \"#utility.yul\":5939:5948   */\n      dup2\n        /* \"#utility.yul\":5933:5937   */\n      dup2\n        /* \"#utility.yul\":5929:5949   */\n      sub\n        /* \"#utility.yul\":5925:5926   */\n      0x00\n        /* \"#utility.yul\":5914:5923   */\n      dup4\n        /* \"#utility.yul\":5910:5927   */\n      add\n        /* \"#utility.yul\":5903:5950   */\n      mstore\n        /* \"#utility.yul\":5967:6098   */\n      tag_179\n        /* \"#utility.yul\":6093:6097   */\n      dup2\n        /* \"#utility.yul\":5967:6098   */\n      tag_112\n      jump\t// in\n    tag_179:\n        /* \"#utility.yul\":5959:6098   */\n      swap1\n      pop\n        /* \"#utility.yul\":5686:6105   */\n      swap2\n      swap1\n      pop\n      jump\t// out\n        /* \"#utility.yul\":6111:6284   */\n    tag_113:\n        /* \"#utility.yul\":6251:6276   */\n      0x4e6f7420656e6f756768204554482070726f7669646564000000000000000000\n        /* \"#utility.yul\":6247:6248   */\n      0x00\n        /* \"#utility.yul\":6239:6245   */\n      dup3\n        /* \"#utility.yul\":6235:6249   */\n      add\n        /* \"#utility.yul\":6228:6277   */\n      mstore\n        /* \"#utility.yul\":6111:6284   */\n      pop\n      jump\t// out\n        /* \"#utility.yul\":6290:6656   */\n    tag_114:\n        /* \"#utility.yul\":6432:6435   */\n      0x00\n        /* \"#utility.yul\":6453:6520   */\n      tag_182\n        /* \"#utility.yul\":6517:6519   */\n      0x17\n        /* \"#utility.yul\":6512:6515   */\n      dup4\n        /* \"#utility.yul\":6453:6520   */\n      tag_105\n      jump\t// in\n    tag_182:\n        /* \"#utility.yul\":6446:6520   */\n      swap2\n      pop\n        /* \"#utility.yul\":6529:6622   */\n      tag_183\n        /* \"#utility.yul\":6618:6621   */\n      dup3\n        /* \"#utility.yul\":6529:6622   */\n      tag_113\n      jump\t// in\n    tag_183:\n        /* \"#utility.yul\":6647:6649   */\n      0x20\n        /* \"#utility.yul\":6642:6645   */\n      dup3\n        /* \"#utility.yul\":6638:6650   */\n      add\n        /* \"#utility.yul\":6631:6650   */\n      swap1\n      pop\n        /* \"#utility.yul\":6290:6656   */\n      swap2\n      swap1\n      pop\n      jump\t// out\n        /* \"#utility.yul\":6662:7081   */\n    tag_66:\n        /* \"#utility.yul\":6828:6832   */\n      0x00\n        /* \"#utility.yul\":6866:6868   */\n      0x20\n        /* \"#utility.yul\":6855:6864   */\n      dup3\n        /* \"#utility.yul\":6851:6869   */\n      add\n        /* \"#utility.yul\":6843:6869   */\n      swap1\n      pop\n        /* \"#utility.yul\":6915:6924   */\n      dup2\n        /* \"#utility.yul\":6909:6913   */\n      dup2\n        /* \"#utility.yul\":6905:6925   */\n      sub\n        /* \"#utility.yul\":6901:6902   */\n      0x00\n        /* \"#utility.yul\":6890:6899   */\n      dup4\n        /* \"#utility.yul\":6886:6903   */\n      add\n        /* \"#utility.yul\":6879:6926   */\n      mstore\n        /* \"#utility.yul\":6943:7074   */\n      tag_185\n        /* \"#utility.yul\":7069:7073   */\n      dup2\n        /* \"#utility.yul\":6943:7074   */\n      tag_114\n      jump\t// in\n    tag_185:\n        /* \"#utility.yul\":6935:7074   */\n      swap1\n      pop\n        /* \"#utility.yul\":6662:7081   */\n      swap2\n      swap1\n      pop\n      jump\t// out\n        /* \"#utility.yul\":7087:7267   */\n    tag_115:\n        /* \"#utility.yul\":7135:7212   */\n      0x4e487b7100000000000000000000000000000000000000000000000000000000\n        /* \"#utility.yul\":7132:7133   */\n      0x00\n        /* \"#utility.yul\":7125:7213   */\n      mstore\n        /* \"#utility.yul\":7232:7236   */\n      0x11\n        /* \"#utility.yul\":7229:7230   */\n      0x04\n        /* \"#utility.yul\":7222:7237   */\n      mstore\n        /* \"#utility.yul\":7256:7260   */\n      0x24\n        /* \"#utility.yul\":7253:7254   */\n      0x00\n        /* \"#utility.yul\":7246:7261   */\n      revert\n        /* \"#utility.yul\":7273:7464   */\n    tag_69:\n        /* \"#utility.yul\":7313:7316   */\n      0x00\n        /* \"#utility.yul\":7332:7352   */\n      tag_188\n        /* \"#utility.yul\":7350:7351   */\n      dup3\n        /* \"#utility.yul\":7332:7352   */\n      tag_100\n      jump\t// in\n    tag_188:\n        /* \"#utility.yul\":7327:7352   */\n      swap2\n      pop\n        /* \"#utility.yul\":7366:7386   */\n      tag_189\n        /* \"#utility.yul\":7384:7385   */\n      dup4\n        /* \"#utility.yul\":7366:7386   */\n      tag_100\n      jump\t// in\n    tag_189:\n        /* \"#utility.yul\":7361:7386   */\n      swap3\n      pop\n        /* \"#utility.yul\":7409:7410   */\n      dup3\n        /* \"#utility.yul\":7406:7407   */\n      dup3\n        /* \"#utility.yul\":7402:7411   */\n      add\n        /* \"#utility.yul\":7395:7411   */\n      swap1\n      pop\n        /* \"#utility.yul\":7430:7433   */\n      dup1\n        /* \"#utility.yul\":7427:7428   */\n      dup3\n        /* \"#utility.yul\":7424:7434   */\n      gt\n        /* \"#utility.yul\":7421:7457   */\n      iszero\n      tag_190\n      jumpi\n        /* \"#utility.yul\":7437:7455   */\n      tag_191\n      tag_115\n      jump\t// in\n    tag_191:\n        /* \"#utility.yul\":7421:7457   */\n    tag_190:\n        /* \"#utility.yul\":7273:7464   */\n      swap3\n      swap2\n      pop\n      pop\n      jump\t// out\n        /* \"#utility.yul\":7470:7880   */\n    tag_76:\n        /* \"#utility.yul\":7510:7517   */\n      0x00\n        /* \"#utility.yul\":7533:7553   */\n      tag_193\n        /* \"#utility.yul\":7551:7552   */\n      dup3\n        /* \"#utility.yul\":7533:7553   */\n      tag_100\n      jump\t// in\n    tag_193:\n        /* \"#utility.yul\":7528:7553   */\n      swap2\n      pop\n        /* \"#utility.yul\":7567:7587   */\n      tag_194\n        /* \"#utility.yul\":7585:7586   */\n      dup4\n        /* \"#utility.yul\":7567:7587   */\n      tag_100\n      jump\t// in\n    tag_194:\n        /* \"#utility.yul\":7562:7587   */\n      swap3\n      pop\n        /* \"#utility.yul\":7622:7623   */\n      dup3\n        /* \"#utility.yul\":7619:7620   */\n      dup3\n        /* \"#utility.yul\":7615:7624   */\n      mul\n        /* \"#utility.yul\":7644:7674   */\n      tag_195\n        /* \"#utility.yul\":7662:7673   */\n      dup2\n        /* \"#utility.yul\":7644:7674   */\n      tag_100\n      jump\t// in\n    tag_195:\n        /* \"#utility.yul\":7633:7674   */\n      swap2\n      pop\n        /* \"#utility.yul\":7823:7824   */\n      dup3\n        /* \"#utility.yul\":7814:7821   */\n      dup3\n        /* \"#utility.yul\":7810:7825   */\n      div\n        /* \"#utility.yul\":7807:7808   */\n      dup5\n        /* \"#utility.yul\":7804:7826   */\n      eq\n        /* \"#utility.yul\":7784:7785   */\n      dup4\n        /* \"#utility.yul\":7777:7786   */\n      iszero\n        /* \"#utility.yul\":7757:7840   */\n      or\n        /* \"#utility.yul\":7734:7873   */\n      tag_196\n      jumpi\n        /* \"#utility.yul\":7853:7871   */\n      tag_197\n      tag_115\n      jump\t// in\n    tag_197:\n        /* \"#utility.yul\":7734:7873   */\n    tag_196:\n        /* \"#utility.yul\":7518:7880   */\n      pop\n        /* \"#utility.yul\":7470:7880   */\n      swap3\n      swap2\n      pop\n      pop\n      jump\t// out\n        /* \"#utility.yul\":7886:8066   */\n    tag_116:\n        /* \"#utility.yul\":7934:8011   */\n      0x4e487b7100000000000000000000000000000000000000000000000000000000\n        /* \"#utility.yul\":7931:7932   */\n      0x00\n        /* \"#utility.yul\":7924:8012   */\n      mstore\n        /* \"#utility.yul\":8031:8035   */\n      0x12\n        /* \"#utility.yul\":8028:8029   */\n      0x04\n        /* \"#utility.yul\":8021:8036   */\n      mstore\n        /* \"#utility.yul\":8055:8059   */\n      0x24\n        /* \"#utility.yul\":8052:8053   */\n      0x00\n        /* \"#utility.yul\":8045:8060   */\n      revert\n        /* \"#utility.yul\":8072:8257   */\n    tag_78:\n        /* \"#utility.yul\":8112:8113   */\n      0x00\n        /* \"#utility.yul\":8129:8149   */\n      tag_200\n        /* \"#utility.yul\":8147:8148   */\n      dup3\n        /* \"#utility.yul\":8129:8149   */\n      tag_100\n      jump\t// in\n    tag_200:\n        /* \"#utility.yul\":8124:8149   */\n      swap2\n      pop\n        /* \"#utility.yul\":8163:8183   */\n      tag_201\n        /* \"#utility.yul\":8181:8182   */\n      dup4\n        /* \"#utility.yul\":8163:8183   */\n      tag_100\n      jump\t// in\n    tag_201:\n        /* \"#utility.yul\":8158:8183   */\n      swap3\n      pop\n        /* \"#utility.yul\":8202:8203   */\n      dup3\n        /* \"#utility.yul\":8192:8227   */\n      tag_202\n      jumpi\n        /* \"#utility.yul\":8207:8225   */\n      tag_203\n      tag_116\n      jump\t// in\n    tag_203:\n        /* \"#utility.yul\":8192:8227   */\n    tag_202:\n        /* \"#utility.yul\":8249:8250   */\n      dup3\n        /* \"#utility.yul\":8246:8247   */\n      dup3\n        /* \"#utility.yul\":8242:8251   */\n      div\n        /* \"#utility.yul\":8237:8251   */\n      swap1\n      pop\n        /* \"#utility.yul\":8072:8257   */\n      swap3\n      swap2\n      pop\n      pop\n      jump\t// out\n        /* \"#utility.yul\":8263:8368   */\n    tag_117:\n        /* \"#utility.yul\":8299:8306   */\n      0x00\n        /* \"#utility.yul\":8339:8361   */\n      0xffffffffffffffffffff\n        /* \"#utility.yul\":8332:8337   */\n      dup3\n        /* \"#utility.yul\":8328:8362   */\n      and\n        /* \"#utility.yul\":8317:8362   */\n      swap1\n      pop\n        /* \"#utility.yul\":8263:8368   */\n      swap2\n      swap1\n      pop\n      jump\t// out\n        /* \"#utility.yul\":8374:8494   */\n    tag_118:\n        /* \"#utility.yul\":8446:8469   */\n      tag_206\n        /* \"#utility.yul\":8463:8468   */\n      dup2\n        /* \"#utility.yul\":8446:8469   */\n      tag_117\n      jump\t// in\n    tag_206:\n        /* \"#utility.yul\":8439:8444   */\n      dup2\n        /* \"#utility.yul\":8436:8470   */\n      eq\n        /* \"#utility.yul\":8426:8488   */\n      tag_207\n      jumpi\n        /* \"#utility.yul\":8484:8485   */\n      0x00\n        /* \"#utility.yul\":8481:8482   */\n      dup1\n        /* \"#utility.yul\":8474:8486   */\n      revert\n        /* \"#utility.yul\":8426:8488   */\n    tag_207:\n        /* \"#utility.yul\":8374:8494   */\n      pop\n      jump\t// out\n        /* \"#utility.yul\":8500:8641   */\n    tag_119:\n        /* \"#utility.yul\":8556:8561   */\n      0x00\n        /* \"#utility.yul\":8587:8593   */\n      dup2\n        /* \"#utility.yul\":8581:8594   */\n      mload\n        /* \"#utility.yul\":8572:8594   */\n      swap1\n      pop\n        /* \"#utility.yul\":8603:8635   */\n      tag_209\n        /* \"#utility.yul\":8629:8634   */\n      dup2\n        /* \"#utility.yul\":8603:8635   */\n      tag_118\n      jump\t// in\n    tag_209:\n        /* \"#utility.yul\":8500:8641   */\n      swap3\n      swap2\n      pop\n      pop\n      jump\t// out\n        /* \"#utility.yul\":8647:8723   */\n    tag_120:\n        /* \"#utility.yul\":8683:8690   */\n      0x00\n        /* \"#utility.yul\":8712:8717   */\n      dup2\n        /* \"#utility.yul\":8701:8717   */\n      swap1\n      pop\n        /* \"#utility.yul\":8647:8723   */\n      swap2\n      swap1\n      pop\n      jump\t// out\n        /* \"#utility.yul\":8729:8849   */\n    tag_121:\n        /* \"#utility.yul\":8801:8824   */\n      tag_212\n        /* \"#utility.yul\":8818:8823   */\n      dup2\n        /* \"#utility.yul\":8801:8824   */\n      tag_120\n      jump\t// in\n    tag_212:\n        /* \"#utility.yul\":8794:8799   */\n      dup2\n        /* \"#utility.yul\":8791:8825   */\n      eq\n        /* \"#utility.yul\":8781:8843   */\n      tag_213\n      jumpi\n        /* \"#utility.yul\":8839:8840   */\n      0x00\n        /* \"#utility.yul\":8836:8837   */\n      dup1\n        /* \"#utility.yul\":8829:8841   */\n      revert\n        /* \"#utility.yul\":8781:8843   */\n    tag_213:\n        /* \"#utility.yul\":8729:8849   */\n      pop\n      jump\t// out\n        /* \"#utility.yul\":8855:8996   */\n    tag_122:\n        /* \"#utility.yul\":8911:8916   */\n      0x00\n        /* \"#utility.yul\":8942:8948   */\n      dup2\n        /* \"#utility.yul\":8936:8949   */\n      mload\n        /* \"#utility.yul\":8927:8949   */\n      swap1\n      pop\n        /* \"#utility.yul\":8958:8990   */\n      tag_215\n        /* \"#utility.yul\":8984:8989   */\n      dup2\n        /* \"#utility.yul\":8958:8990   */\n      tag_121\n      jump\t// in\n    tag_215:\n        /* \"#utility.yul\":8855:8996   */\n      swap3\n      swap2\n      pop\n      pop\n      jump\t// out\n        /* \"#utility.yul\":9002:9145   */\n    tag_123:\n        /* \"#utility.yul\":9059:9064   */\n      0x00\n        /* \"#utility.yul\":9090:9096   */\n      dup2\n        /* \"#utility.yul\":9084:9097   */\n      mload\n        /* \"#utility.yul\":9075:9097   */\n      swap1\n      pop\n        /* \"#utility.yul\":9106:9139   */\n      tag_217\n        /* \"#utility.yul\":9133:9138   */\n      dup2\n        /* \"#utility.yul\":9106:9139   */\n      tag_103\n      jump\t// in\n    tag_217:\n        /* \"#utility.yul\":9002:9145   */\n      swap3\n      swap2\n      pop\n      pop\n      jump\t// out\n        /* \"#utility.yul\":9151:10122   */\n    tag_83:\n        /* \"#utility.yul\":9254:9260   */\n      0x00\n        /* \"#utility.yul\":9262:9268   */\n      dup1\n        /* \"#utility.yul\":9270:9276   */\n      0x00\n        /* \"#utility.yul\":9278:9284   */\n      dup1\n        /* \"#utility.yul\":9286:9292   */\n      0x00\n        /* \"#utility.yul\":9335:9338   */\n      0xa0\n        /* \"#utility.yul\":9323:9332   */\n      dup7\n        /* \"#utility.yul\":9314:9321   */\n      dup9\n        /* \"#utility.yul\":9310:9333   */\n      sub\n        /* \"#utility.yul\":9306:9339   */\n      slt\n        /* \"#utility.yul\":9303:9423   */\n      iszero\n      tag_219\n      jumpi\n        /* \"#utility.yul\":9342:9421   */\n      tag_220\n      tag_94\n      jump\t// in\n    tag_220:\n        /* \"#utility.yul\":9303:9423   */\n    tag_219:\n        /* \"#utility.yul\":9462:9463   */\n      0x00\n        /* \"#utility.yul\":9487:9550   */\n      tag_221\n        /* \"#utility.yul\":9542:9549   */\n      dup9\n        /* \"#utility.yul\":9533:9539   */\n      dup3\n        /* \"#utility.yul\":9522:9531   */\n      dup10\n        /* \"#utility.yul\":9518:9540   */\n      add\n        /* \"#utility.yul\":9487:9550   */\n      tag_119\n      jump\t// in\n    tag_221:\n        /* \"#utility.yul\":9477:9550   */\n      swap6\n      pop\n        /* \"#utility.yul\":9433:9560   */\n      pop\n        /* \"#utility.yul\":9599:9601   */\n      0x20\n        /* \"#utility.yul\":9625:9688   */\n      tag_222\n        /* \"#utility.yul\":9680:9687   */\n      dup9\n        /* \"#utility.yul\":9671:9677   */\n      dup3\n        /* \"#utility.yul\":9660:9669   */\n      dup10\n        /* \"#utility.yul\":9656:9678   */\n      add\n        /* \"#utility.yul\":9625:9688   */\n      tag_122\n      jump\t// in\n    tag_222:\n        /* \"#utility.yul\":9615:9688   */\n      swap5\n      pop\n        /* \"#utility.yul\":9570:9698   */\n      pop\n        /* \"#utility.yul\":9737:9739   */\n      0x40\n        /* \"#utility.yul\":9763:9827   */\n      tag_223\n        /* \"#utility.yul\":9819:9826   */\n      dup9\n        /* \"#utility.yul\":9810:9816   */\n      dup3\n        /* \"#utility.yul\":9799:9808   */\n      dup10\n        /* \"#utility.yul\":9795:9817   */\n      add\n        /* \"#utility.yul\":9763:9827   */\n      tag_123\n      jump\t// in\n    tag_223:\n        /* \"#utility.yul\":9753:9827   */\n      swap4\n      pop\n        /* \"#utility.yul\":9708:9837   */\n      pop\n        /* \"#utility.yul\":9876:9878   */\n      0x60\n        /* \"#utility.yul\":9902:9966   */\n      tag_224\n        /* \"#utility.yul\":9958:9965   */\n      dup9\n        /* \"#utility.yul\":9949:9955   */\n      dup3\n        /* \"#utility.yul\":9938:9947   */\n      dup10\n        /* \"#utility.yul\":9934:9956   */\n      add\n        /* \"#utility.yul\":9902:9966   */\n      tag_123\n      jump\t// in\n    tag_224:\n        /* \"#utility.yul\":9892:9966   */\n      swap3\n      pop\n        /* \"#utility.yul\":9847:9976   */\n      pop\n        /* \"#utility.yul\":10015:10018   */\n      0x80\n        /* \"#utility.yul\":10042:10105   */\n      tag_225\n        /* \"#utility.yul\":10097:10104   */\n      dup9\n        /* \"#utility.yul\":10088:10094   */\n      dup3\n        /* \"#utility.yul\":10077:10086   */\n      dup10\n        /* \"#utility.yul\":10073:10095   */\n      add\n        /* \"#utility.yul\":10042:10105   */\n      tag_119\n      jump\t// in\n    tag_225:\n        /* \"#utility.yul\":10032:10105   */\n      swap2\n      pop\n        /* \"#utility.yul\":9986:10115   */\n      pop\n        /* \"#utility.yul\":9151:10122   */\n      swap3\n      swap6\n      pop\n      swap3\n      swap6\n      swap1\n      swap4\n      pop\n      jump\t// out\n        /* \"#utility.yul\":10128:10684   */\n    tag_85:\n        /* \"#utility.yul\":10167:10174   */\n      0x00\n        /* \"#utility.yul\":10190:10209   */\n      tag_227\n        /* \"#utility.yul\":10207:10208   */\n      dup3\n        /* \"#utility.yul\":10190:10209   */\n      tag_120\n      jump\t// in\n    tag_227:\n        /* \"#utility.yul\":10185:10209   */\n      swap2\n      pop\n        /* \"#utility.yul\":10223:10242   */\n      tag_228\n        /* \"#utility.yul\":10240:10241   */\n      dup4\n        /* \"#utility.yul\":10223:10242   */\n      tag_120\n      jump\t// in\n    tag_228:\n        /* \"#utility.yul\":10218:10242   */\n      swap3\n      pop\n        /* \"#utility.yul\":10277:10278   */\n      dup3\n        /* \"#utility.yul\":10274:10275   */\n      dup3\n        /* \"#utility.yul\":10270:10279   */\n      mul\n        /* \"#utility.yul\":10299:10328   */\n      tag_229\n        /* \"#utility.yul\":10316:10327   */\n      dup2\n        /* \"#utility.yul\":10299:10328   */\n      tag_120\n      jump\t// in\n    tag_229:\n        /* \"#utility.yul\":10288:10328   */\n      swap2\n      pop\n        /* \"#utility.yul\":10386:10452   */\n      0x8000000000000000000000000000000000000000000000000000000000000000\n        /* \"#utility.yul\":10383:10384   */\n      dup5\n        /* \"#utility.yul\":10380:10453   */\n      eq\n        /* \"#utility.yul\":10376:10377   */\n      0x00\n        /* \"#utility.yul\":10373:10374   */\n      dup5\n        /* \"#utility.yul\":10369:10378   */\n      slt\n        /* \"#utility.yul\":10365:10454   */\n      and\n        /* \"#utility.yul\":10362:10477   */\n      iszero\n      tag_230\n      jumpi\n        /* \"#utility.yul\":10457:10475   */\n      tag_231\n      tag_115\n      jump\t// in\n    tag_231:\n        /* \"#utility.yul\":10362:10477   */\n    tag_230:\n        /* \"#utility.yul\":10627:10628   */\n      dup3\n        /* \"#utility.yul\":10618:10625   */\n      dup3\n        /* \"#utility.yul\":10613:10629   */\n      sdiv\n        /* \"#utility.yul\":10610:10611   */\n      dup5\n        /* \"#utility.yul\":10607:10630   */\n      eq\n        /* \"#utility.yul\":10587:10588   */\n      dup4\n        /* \"#utility.yul\":10580:10589   */\n      iszero\n        /* \"#utility.yul\":10560:10644   */\n      or\n        /* \"#utility.yul\":10537:10677   */\n      tag_232\n      jumpi\n        /* \"#utility.yul\":10657:10675   */\n      tag_233\n      tag_115\n      jump\t// in\n    tag_233:\n        /* \"#utility.yul\":10537:10677   */\n    tag_232:\n        /* \"#utility.yul\":10175:10684   */\n      pop\n        /* \"#utility.yul\":10128:10684   */\n      swap3\n      swap2\n      pop\n      pop\n      jump\t// out\n\n    auxdata: 0xa26469706673582212205b76cb5a946f3a6d70c3148db2f5367348417c1004b69b36cb636dba8f6d548964736f6c63430008190033\n}\n",
				"bytecode": {
					"linkReferences": {},
					"object": "60a0604052348015600e575f80fd5b503373ffffffffffffffffffffffffffffffffffffffff1660808173ffffffffffffffffffffffffffffffffffffffff1681525050608051610c3e6100625f395f818161014601526104a20152610c3e5ff3fe608060405260043610610054575f3560e01c80633ccfd60b146100585780633e47d6f31461006e5780636b69a592146100aa578063b60d4288146100d4578063dba6335f146100de578063dc0d3dff14610108575b5f80fd5b348015610063575f80fd5b5061006c610144565b005b348015610079575f80fd5b50610094600480360381019061008f91906106db565b610378565b6040516100a1919061071e565b60405180910390f35b3480156100b5575f80fd5b506100be61038d565b6040516100cb919061071e565b60405180910390f35b6100dc610399565b005b3480156100e9575f80fd5b506100f26104a0565b6040516100ff9190610746565b60405180910390f35b348015610113575f80fd5b5061012e60048036038101906101299190610789565b6104c4565b60405161013b9190610746565b60405180910390f35b7f000000000000000000000000000000000000000000000000000000000000000073ffffffffffffffffffffffffffffffffffffffff163373ffffffffffffffffffffffffffffffffffffffff16146101d2576040517f08c379a00000000000000000000000000000000000000000000000000000000081526004016101c99061080e565b60405180910390fd5b5f5b5f8054905081101561026e575f8082815481106101f4576101f361082c565b5b905f5260205f20015f9054906101000a900473ffffffffffffffffffffffffffffffffffffffff1690505f60015f8373ffffffffffffffffffffffffffffffffffffffff1673ffffffffffffffffffffffffffffffffffffffff1681526020019081526020015f20819055505080806001019150506101d4565b505f67ffffffffffffffff81111561028957610288610859565b5b6040519080825280602002602001820160405280156102b75781602001602082028036833780820191505090505b505f90805190602001906102cc9291906105db565b505f3373ffffffffffffffffffffffffffffffffffffffff16476040516102f2906108b3565b5f6040518083038185875af1925050503d805f811461032c576040519150601f19603f3d011682016040523d82523d5f602084013e610331565b606091505b5050905080610375576040517f08c379a000000000000000000000000000000000000000000000000000000000815260040161036c90610911565b60405180910390fd5b50565b6001602052805f5260405f205f915090505481565b674563918244f4000081565b674563918244f400006103ab346104fe565b10156103ec576040517f08c379a00000000000000000000000000000000000000000000000000000000081526004016103e390610979565b60405180910390fd5b5f33908060018154018082558091505060019003905f5260205f20015f9091909190916101000a81548173ffffffffffffffffffffffffffffffffffffffff021916908373ffffffffffffffffffffffffffffffffffffffff1602179055503460015f3373ffffffffffffffffffffffffffffffffffffffff1673ffffffffffffffffffffffffffffffffffffffff1681526020019081526020015f205f82825461049791906109c4565b92505081905550565b7f000000000000000000000000000000000000000000000000000000000000000081565b5f81815481106104d2575f80fd5b905f5260205f20015f915054906101000a900473ffffffffffffffffffffffffffffffffffffffff1681565b5f80610508610536565b90505f670de0b6b3a7640000848361052091906109f7565b61052a9190610a65565b90508092505050919050565b5f8073694aa1769357215de4fac081bf1f309adc32530690505f8173ffffffffffffffffffffffffffffffffffffffff1663feaf968c6040518163ffffffff1660e01b815260040160a060405180830381865afa158015610599573d5f803e3d5ffd5b505050506040513d601f19601f820116820180604052508101906105bd9190610b1b565b5050509150506402540be400816105d49190610b92565b9250505090565b828054828255905f5260205f20908101928215610651579160200282015b82811115610650578251825f6101000a81548173ffffffffffffffffffffffffffffffffffffffff021916908373ffffffffffffffffffffffffffffffffffffffff160217905550916020019190600101906105f9565b5b50905061065e9190610662565b5090565b5b80821115610679575f815f905550600101610663565b5090565b5f80fd5b5f73ffffffffffffffffffffffffffffffffffffffff82169050919050565b5f6106aa82610681565b9050919050565b6106ba816106a0565b81146106c4575f80fd5b50565b5f813590506106d5816106b1565b92915050565b5f602082840312156106f0576106ef61067d565b5b5f6106fd848285016106c7565b91505092915050565b5f819050919050565b61071881610706565b82525050565b5f6020820190506107315f83018461070f565b92915050565b610740816106a0565b82525050565b5f6020820190506107595f830184610737565b92915050565b61076881610706565b8114610772575f80fd5b50565b5f813590506107838161075f565b92915050565b5f6020828403121561079e5761079d61067d565b5b5f6107ab84828501610775565b91505092915050565b5f82825260208201905092915050565b7f4d757374206265206f776e6572210000000000000000000000000000000000005f82015250565b5f6107f8600e836107b4565b9150610803826107c4565b602082019050919050565b5f6020820190508181035f830152610825816107ec565b9050919050565b7f4e487b71000000000000000000000000000000000000000000000000000000005f52603260045260245ffd5b7f4e487b71000000000000000000000000000000000000000000000000000000005f52604160045260245ffd5b5f81905092915050565b50565b5f61089e5f83610886565b91506108a982610890565b5f82019050919050565b5f6108bd82610893565b9150819050919050565b7f43414c4c204641494c45440000000000000000000000000000000000000000005f82015250565b5f6108fb600b836107b4565b9150610906826108c7565b602082019050919050565b5f6020820190508181035f830152610928816108ef565b9050919050565b7f4e6f7420656e6f756768204554482070726f76696465640000000000000000005f82015250565b5f6109636017836107b4565b915061096e8261092f565b602082019050919050565b5f6020820190508181035f83015261099081610957565b9050919050565b7f4e487b71000000000000000000000000000000000000000000000000000000005f52601160045260245ffd5b5f6109ce82610706565b91506109d983610706565b92508282019050808211156109f1576109f0610997565b5b92915050565b5f610a0182610706565b9150610a0c83610706565b9250828202610a1a81610706565b91508282048414831517610a3157610a30610997565b5b5092915050565b7f4e487b71000000000000000000000000000000000000000000000000000000005f52601260045260245ffd5b5f610a6f82610706565b9150610a7a83610706565b925082610a8a57610a89610a38565b5b828204905092915050565b5f69ffffffffffffffffffff82169050919050565b610ab381610a95565b8114610abd575f80fd5b50565b5f81519050610ace81610aaa565b92915050565b5f819050919050565b610ae681610ad4565b8114610af0575f80fd5b50565b5f81519050610b0181610add565b92915050565b5f81519050610b158161075f565b92915050565b5f805f805f60a08688031215610b3457610b3361067d565b5b5f610b4188828901610ac0565b9550506020610b5288828901610af3565b9450506040610b6388828901610b07565b9350506060610b7488828901610b07565b9250506080610b8588828901610ac0565b9150509295509295909350565b5f610b9c82610ad4565b9150610ba783610ad4565b9250828202610bb581610ad4565b91507f800000000000000000000000000000000000000000000000000000000000000084145f84121615610bec57610beb610997565b5b8282058414831517610c0157610c00610997565b5b509291505056fea26469706673582212205b76cb5a946f3a6d70c3148db2f5367348417c1004b69b36cb636dba8f6d548964736f6c63430008190033",
					"opcodes": "PUSH1 0xA0 PUSH1 0x40 MSTORE CALLVALUE DUP1 ISZERO PUSH1 0xE JUMPI PUSH0 DUP1 REVERT JUMPDEST POP CALLER PUSH20 0xFFFFFFFFFFFFFFFFFFFFFFFFFFFFFFFFFFFFFFFF AND PUSH1 0x80 DUP2 PUSH20 0xFFFFFFFFFFFFFFFFFFFFFFFFFFFFFFFFFFFFFFFF AND DUP2 MSTORE POP POP PUSH1 0x80 MLOAD PUSH2 0xC3E PUSH2 0x62 PUSH0 CODECOPY PUSH0 DUP2 DUP2 PUSH2 0x146 ADD MSTORE PUSH2 0x4A2 ADD MSTORE PUSH2 0xC3E PUSH0 RETURN INVALID PUSH1 0x80 PUSH1 0x40 MSTORE PUSH1 0x4 CALLDATASIZE LT PUSH2 0x54 JUMPI PUSH0 CALLDATALOAD PUSH1 0xE0 SHR DUP1 PUSH4 0x3CCFD60B EQ PUSH2 0x58 JUMPI DUP1 PUSH4 0x3E47D6F3 EQ PUSH2 0x6E JUMPI DUP1 PUSH4 0x6B69A592 EQ PUSH2 0xAA JUMPI DUP1 PUSH4 0xB60D4288 EQ PUSH2 0xD4 JUMPI DUP1 PUSH4 0xDBA6335F EQ PUSH2 0xDE JUMPI DUP1 PUSH4 0xDC0D3DFF EQ PUSH2 0x108 JUMPI JUMPDEST PUSH0 DUP1 REVERT JUMPDEST CALLVALUE DUP1 ISZERO PUSH2 0x63 JUMPI PUSH0 DUP1 REVERT JUMPDEST POP PUSH2 0x6C PUSH2 0x144 JUMP JUMPDEST STOP JUMPDEST CALLVALUE DUP1 ISZERO PUSH2 0x79 JUMPI PUSH0 DUP1 REVERT JUMPDEST POP PUSH2 0x94 PUSH1 0x4 DUP1 CALLDATASIZE SUB DUP2 ADD SWAP1 PUSH2 0x8F SWAP2 SWAP1 PUSH2 0x6DB JUMP JUMPDEST PUSH2 0x378 JUMP JUMPDEST PUSH1 0x40 MLOAD PUSH2 0xA1 SWAP2 SWAP1 PUSH2 0x71E JUMP JUMPDEST PUSH1 0x40 MLOAD DUP1 SWAP2 SUB SWAP1 RETURN JUMPDEST CALLVALUE DUP1 ISZERO PUSH2 0xB5 JUMPI PUSH0 DUP1 REVERT JUMPDEST POP PUSH2 0xBE PUSH2 0x38D JUMP JUMPDEST PUSH1 0x40 MLOAD PUSH2 0xCB SWAP2 SWAP1 PUSH2 0x71E JUMP JUMPDEST PUSH1 0x40 MLOAD DUP1 SWAP2 SUB SWAP1 RETURN JUMPDEST PUSH2 0xDC PUSH2 0x399 JUMP JUMPDEST STOP JUMPDEST CALLVALUE DUP1 ISZERO PUSH2 0xE9 JUMPI PUSH0 DUP1 REVERT JUMPDEST POP PUSH2 0xF2 PUSH2 0x4A0 JUMP JUMPDEST PUSH1 0x40 MLOAD PUSH2 0xFF SWAP2 SWAP1 PUSH2 0x746 JUMP JUMPDEST PUSH1 0x40 MLOAD DUP1 SWAP2 SUB SWAP1 RETURN JUMPDEST CALLVALUE DUP1 ISZERO PUSH2 0x113 JUMPI PUSH0 DUP1 REVERT JUMPDEST POP PUSH2 0x12E PUSH1 0x4 DUP1 CALLDATASIZE SUB DUP2 ADD SWAP1 PUSH2 0x129 SWAP2 SWAP1 PUSH2 0x789 JUMP JUMPDEST PUSH2 0x4C4 JUMP JUMPDEST PUSH1 0x40 MLOAD PUSH2 0x13B SWAP2 SWAP1 PUSH2 0x746 JUMP JUMPDEST PUSH1 0x40 MLOAD DUP1 SWAP2 SUB SWAP1 RETURN JUMPDEST PUSH32 0x0 PUSH20 0xFFFFFFFFFFFFFFFFFFFFFFFFFFFFFFFFFFFFFFFF AND CALLER PUSH20 0xFFFFFFFFFFFFFFFFFFFFFFFFFFFFFFFFFFFFFFFF AND EQ PUSH2 0x1D2 JUMPI PUSH1 0x40 MLOAD PUSH32 0x8C379A000000000000000000000000000000000000000000000000000000000 DUP2 MSTORE PUSH1 0x4 ADD PUSH2 0x1C9 SWAP1 PUSH2 0x80E JUMP JUMPDEST PUSH1 0x40 MLOAD DUP1 SWAP2 SUB SWAP1 REVERT JUMPDEST PUSH0 JUMPDEST PUSH0 DUP1 SLOAD SWAP1 POP DUP2 LT ISZERO PUSH2 0x26E JUMPI PUSH0 DUP1 DUP3 DUP2 SLOAD DUP2 LT PUSH2 0x1F4 JUMPI PUSH2 0x1F3 PUSH2 0x82C JUMP JUMPDEST JUMPDEST SWAP1 PUSH0 MSTORE PUSH1 0x20 PUSH0 KECCAK256 ADD PUSH0 SWAP1 SLOAD SWAP1 PUSH2 0x100 EXP SWAP1 DIV PUSH20 0xFFFFFFFFFFFFFFFFFFFFFFFFFFFFFFFFFFFFFFFF AND SWAP1 POP PUSH0 PUSH1 0x1 PUSH0 DUP4 PUSH20 0xFFFFFFFFFFFFFFFFFFFFFFFFFFFFFFFFFFFFFFFF AND PUSH20 0xFFFFFFFFFFFFFFFFFFFFFFFFFFFFFFFFFFFFFFFF AND DUP2 MSTORE PUSH1 0x20 ADD SWAP1 DUP2 MSTORE PUSH1 0x20 ADD PUSH0 KECCAK256 DUP2 SWAP1 SSTORE POP POP DUP1 DUP1 PUSH1 0x1 ADD SWAP2 POP POP PUSH2 0x1D4 JUMP JUMPDEST POP PUSH0 PUSH8 0xFFFFFFFFFFFFFFFF DUP2 GT ISZERO PUSH2 0x289 JUMPI PUSH2 0x288 PUSH2 0x859 JUMP JUMPDEST JUMPDEST PUSH1 0x40 MLOAD SWAP1 DUP1 DUP3 MSTORE DUP1 PUSH1 0x20 MUL PUSH1 0x20 ADD DUP3 ADD PUSH1 0x40 MSTORE DUP1 ISZERO PUSH2 0x2B7 JUMPI DUP2 PUSH1 0x20 ADD PUSH1 0x20 DUP3 MUL DUP1 CALLDATASIZE DUP4 CALLDATACOPY DUP1 DUP3 ADD SWAP2 POP POP SWAP1 POP JUMPDEST POP PUSH0 SWAP1 DUP1 MLOAD SWAP1 PUSH1 0x20 ADD SWAP1 PUSH2 0x2CC SWAP3 SWAP2 SWAP1 PUSH2 0x5DB JUMP JUMPDEST POP PUSH0 CALLER PUSH20 0xFFFFFFFFFFFFFFFFFFFFFFFFFFFFFFFFFFFFFFFF AND SELFBALANCE PUSH1 0x40 MLOAD PUSH2 0x2F2 SWAP1 PUSH2 0x8B3 JUMP JUMPDEST PUSH0 PUSH1 0x40 MLOAD DUP1 DUP4 SUB DUP2 DUP6 DUP8 GAS CALL SWAP3 POP POP POP RETURNDATASIZE DUP1 PUSH0 DUP2 EQ PUSH2 0x32C JUMPI PUSH1 0x40 MLOAD SWAP2 POP PUSH1 0x1F NOT PUSH1 0x3F RETURNDATASIZE ADD AND DUP3 ADD PUSH1 0x40 MSTORE RETURNDATASIZE DUP3 MSTORE RETURNDATASIZE PUSH0 PUSH1 0x20 DUP5 ADD RETURNDATACOPY PUSH2 0x331 JUMP JUMPDEST PUSH1 0x60 SWAP2 POP JUMPDEST POP POP SWAP1 POP DUP1 PUSH2 0x375 JUMPI PUSH1 0x40 MLOAD PUSH32 0x8C379A000000000000000000000000000000000000000000000000000000000 DUP2 MSTORE PUSH1 0x4 ADD PUSH2 0x36C SWAP1 PUSH2 0x911 JUMP JUMPDEST PUSH1 0x40 MLOAD DUP1 SWAP2 SUB SWAP1 REVERT JUMPDEST POP JUMP JUMPDEST PUSH1 0x1 PUSH1 0x20 MSTORE DUP1 PUSH0 MSTORE PUSH1 0x40 PUSH0 KECCAK256 PUSH0 SWAP2 POP SWAP1 POP SLOAD DUP2 JUMP JUMPDEST PUSH8 0x4563918244F40000 DUP2 JUMP JUMPDEST PUSH8 0x4563918244F40000 PUSH2 0x3AB CALLVALUE PUSH2 0x4FE JUMP JUMPDEST LT ISZERO PUSH2 0x3EC JUMPI PUSH1 0x40 MLOAD PUSH32 0x8C379A000000000000000000000000000000000000000000000000000000000 DUP2 MSTORE PUSH1 0x4 ADD PUSH2 0x3E3 SWAP1 PUSH2 0x979 JUMP JUMPDEST PUSH1 0x40 MLOAD DUP1 SWAP2 SUB SWAP1 REVERT JUMPDEST PUSH0 CALLER SWAP1 DUP1 PUSH1 0x1 DUP2 SLOAD ADD DUP1 DUP3 SSTORE DUP1 SWAP2 POP POP PUSH1 0x1 SWAP1 SUB SWAP1 PUSH0 MSTORE PUSH1 0x20 PUSH0 KECCAK256 ADD PUSH0 SWAP1 SWAP2 SWAP1 SWAP2 SWAP1 SWAP2 PUSH2 0x100 EXP DUP2 SLOAD DUP2 PUSH20 0xFFFFFFFFFFFFFFFFFFFFFFFFFFFFFFFFFFFFFFFF MUL NOT AND SWAP1 DUP4 PUSH20 0xFFFFFFFFFFFFFFFFFFFFFFFFFFFFFFFFFFFFFFFF AND MUL OR SWAP1 SSTORE POP CALLVALUE PUSH1 0x1 PUSH0 CALLER PUSH20 0xFFFFFFFFFFFFFFFFFFFFFFFFFFFFFFFFFFFFFFFF AND PUSH20 0xFFFFFFFFFFFFFFFFFFFFFFFFFFFFFFFFFFFFFFFF AND DUP2 MSTORE PUSH1 0x20 ADD SWAP1 DUP2 MSTORE PUSH1 0x20 ADD PUSH0 KECCAK256 PUSH0 DUP3 DUP3 SLOAD PUSH2 0x497 SWAP2 SWAP1 PUSH2 0x9C4 JUMP JUMPDEST SWAP3 POP POP DUP2 SWAP1 SSTORE POP JUMP JUMPDEST PUSH32 0x0 DUP2 JUMP JUMPDEST PUSH0 DUP2 DUP2 SLOAD DUP2 LT PUSH2 0x4D2 JUMPI PUSH0 DUP1 REVERT JUMPDEST SWAP1 PUSH0 MSTORE PUSH1 0x20 PUSH0 KECCAK256 ADD PUSH0 SWAP2 POP SLOAD SWAP1 PUSH2 0x100 EXP SWAP1 DIV PUSH20 0xFFFFFFFFFFFFFFFFFFFFFFFFFFFFFFFFFFFFFFFF AND DUP2 JUMP JUMPDEST PUSH0 DUP1 PUSH2 0x508 PUSH2 0x536 JUMP JUMPDEST SWAP1 POP PUSH0 PUSH8 0xDE0B6B3A7640000 DUP5 DUP4 PUSH2 0x520 SWAP2 SWAP1 PUSH2 0x9F7 JUMP JUMPDEST PUSH2 0x52A SWAP2 SWAP1 PUSH2 0xA65 JUMP JUMPDEST SWAP1 POP DUP1 SWAP3 POP POP POP SWAP2 SWAP1 POP JUMP JUMPDEST PUSH0 DUP1 PUSH20 0x694AA1769357215DE4FAC081BF1F309ADC325306 SWAP1 POP PUSH0 DUP2 PUSH20 0xFFFFFFFFFFFFFFFFFFFFFFFFFFFFFFFFFFFFFFFF AND PUSH4 0xFEAF968C PUSH1 0x40 MLOAD DUP2 PUSH4 0xFFFFFFFF AND PUSH1 0xE0 SHL DUP2 MSTORE PUSH1 0x4 ADD PUSH1 0xA0 PUSH1 0x40 MLOAD DUP1 DUP4 SUB DUP2 DUP7 GAS STATICCALL ISZERO DUP1 ISZERO PUSH2 0x599 JUMPI RETURNDATASIZE PUSH0 DUP1 RETURNDATACOPY RETURNDATASIZE PUSH0 REVERT JUMPDEST POP POP POP POP PUSH1 0x40 MLOAD RETURNDATASIZE PUSH1 0x1F NOT PUSH1 0x1F DUP3 ADD AND DUP3 ADD DUP1 PUSH1 0x40 MSTORE POP DUP2 ADD SWAP1 PUSH2 0x5BD SWAP2 SWAP1 PUSH2 0xB1B JUMP JUMPDEST POP POP POP SWAP2 POP POP PUSH5 0x2540BE400 DUP2 PUSH2 0x5D4 SWAP2 SWAP1 PUSH2 0xB92 JUMP JUMPDEST SWAP3 POP POP POP SWAP1 JUMP JUMPDEST DUP3 DUP1 SLOAD DUP3 DUP3 SSTORE SWAP1 PUSH0 MSTORE PUSH1 0x20 PUSH0 KECCAK256 SWAP1 DUP2 ADD SWAP3 DUP3 ISZERO PUSH2 0x651 JUMPI SWAP2 PUSH1 0x20 MUL DUP3 ADD JUMPDEST DUP3 DUP2 GT ISZERO PUSH2 0x650 JUMPI DUP3 MLOAD DUP3 PUSH0 PUSH2 0x100 EXP DUP2 SLOAD DUP2 PUSH20 0xFFFFFFFFFFFFFFFFFFFFFFFFFFFFFFFFFFFFFFFF MUL NOT AND SWAP1 DUP4 PUSH20 0xFFFFFFFFFFFFFFFFFFFFFFFFFFFFFFFFFFFFFFFF AND MUL OR SWAP1 SSTORE POP SWAP2 PUSH1 0x20 ADD SWAP2 SWAP1 PUSH1 0x1 ADD SWAP1 PUSH2 0x5F9 JUMP JUMPDEST JUMPDEST POP SWAP1 POP PUSH2 0x65E SWAP2 SWAP1 PUSH2 0x662 JUMP JUMPDEST POP SWAP1 JUMP JUMPDEST JUMPDEST DUP1 DUP3 GT ISZERO PUSH2 0x679 JUMPI PUSH0 DUP2 PUSH0 SWAP1 SSTORE POP PUSH1 0x1 ADD PUSH2 0x663 JUMP JUMPDEST POP SWAP1 JUMP JUMPDEST PUSH0 DUP1 REVERT JUMPDEST PUSH0 PUSH20 0xFFFFFFFFFFFFFFFFFFFFFFFFFFFFFFFFFFFFFFFF DUP3 AND SWAP1 POP SWAP2 SWAP1 POP JUMP JUMPDEST PUSH0 PUSH2 0x6AA DUP3 PUSH2 0x681 JUMP JUMPDEST SWAP1 POP SWAP2 SWAP1 POP JUMP JUMPDEST PUSH2 0x6BA DUP2 PUSH2 0x6A0 JUMP JUMPDEST DUP2 EQ PUSH2 0x6C4 JUMPI PUSH0 DUP1 REVERT JUMPDEST POP JUMP JUMPDEST PUSH0 DUP2 CALLDATALOAD SWAP1 POP PUSH2 0x6D5 DUP2 PUSH2 0x6B1 JUMP JUMPDEST SWAP3 SWAP2 POP POP JUMP JUMPDEST PUSH0 PUSH1 0x20 DUP3 DUP5 SUB SLT ISZERO PUSH2 0x6F0 JUMPI PUSH2 0x6EF PUSH2 0x67D JUMP JUMPDEST JUMPDEST PUSH0 PUSH2 0x6FD DUP5 DUP3 DUP6 ADD PUSH2 0x6C7 JUMP JUMPDEST SWAP2 POP POP SWAP3 SWAP2 POP POP JUMP JUMPDEST PUSH0 DUP2 SWAP1 POP SWAP2 SWAP1 POP JUMP JUMPDEST PUSH2 0x718 DUP2 PUSH2 0x706 JUMP JUMPDEST DUP3 MSTORE POP POP JUMP JUMPDEST PUSH0 PUSH1 0x20 DUP3 ADD SWAP1 POP PUSH2 0x731 PUSH0 DUP4 ADD DUP5 PUSH2 0x70F JUMP JUMPDEST SWAP3 SWAP2 POP POP JUMP JUMPDEST PUSH2 0x740 DUP2 PUSH2 0x6A0 JUMP JUMPDEST DUP3 MSTORE POP POP JUMP JUMPDEST PUSH0 PUSH1 0x20 DUP3 ADD SWAP1 POP PUSH2 0x759 PUSH0 DUP4 ADD DUP5 PUSH2 0x737 JUMP JUMPDEST SWAP3 SWAP2 POP POP JUMP JUMPDEST PUSH2 0x768 DUP2 PUSH2 0x706 JUMP JUMPDEST DUP2 EQ PUSH2 0x772 JUMPI PUSH0 DUP1 REVERT JUMPDEST POP JUMP JUMPDEST PUSH0 DUP2 CALLDATALOAD SWAP1 POP PUSH2 0x783 DUP2 PUSH2 0x75F JUMP JUMPDEST SWAP3 SWAP2 POP POP JUMP JUMPDEST PUSH0 PUSH1 0x20 DUP3 DUP5 SUB SLT ISZERO PUSH2 0x79E JUMPI PUSH2 0x79D PUSH2 0x67D JUMP JUMPDEST JUMPDEST PUSH0 PUSH2 0x7AB DUP5 DUP3 DUP6 ADD PUSH2 0x775 JUMP JUMPDEST SWAP2 POP POP SWAP3 SWAP2 POP POP JUMP JUMPDEST PUSH0 DUP3 DUP3 MSTORE PUSH1 0x20 DUP3 ADD SWAP1 POP SWAP3 SWAP2 POP POP JUMP JUMPDEST PUSH32 0x4D757374206265206F776E657221000000000000000000000000000000000000 PUSH0 DUP3 ADD MSTORE POP JUMP JUMPDEST PUSH0 PUSH2 0x7F8 PUSH1 0xE DUP4 PUSH2 0x7B4 JUMP JUMPDEST SWAP2 POP PUSH2 0x803 DUP3 PUSH2 0x7C4 JUMP JUMPDEST PUSH1 0x20 DUP3 ADD SWAP1 POP SWAP2 SWAP1 POP JUMP JUMPDEST PUSH0 PUSH1 0x20 DUP3 ADD SWAP1 POP DUP2 DUP2 SUB PUSH0 DUP4 ADD MSTORE PUSH2 0x825 DUP2 PUSH2 0x7EC JUMP JUMPDEST SWAP1 POP SWAP2 SWAP1 POP JUMP JUMPDEST PUSH32 0x4E487B7100000000000000000000000000000000000000000000000000000000 PUSH0 MSTORE PUSH1 0x32 PUSH1 0x4 MSTORE PUSH1 0x24 PUSH0 REVERT JUMPDEST PUSH32 0x4E487B7100000000000000000000000000000000000000000000000000000000 PUSH0 MSTORE PUSH1 0x41 PUSH1 0x4 MSTORE PUSH1 0x24 PUSH0 REVERT JUMPDEST PUSH0 DUP2 SWAP1 POP SWAP3 SWAP2 POP POP JUMP JUMPDEST POP JUMP JUMPDEST PUSH0 PUSH2 0x89E PUSH0 DUP4 PUSH2 0x886 JUMP JUMPDEST SWAP2 POP PUSH2 0x8A9 DUP3 PUSH2 0x890 JUMP JUMPDEST PUSH0 DUP3 ADD SWAP1 POP SWAP2 SWAP1 POP JUMP JUMPDEST PUSH0 PUSH2 0x8BD DUP3 PUSH2 0x893 JUMP JUMPDEST SWAP2 POP DUP2 SWAP1 POP SWAP2 SWAP1 POP JUMP JUMPDEST PUSH32 0x43414C4C204641494C4544000000000000000000000000000000000000000000 PUSH0 DUP3 ADD MSTORE POP JUMP JUMPDEST PUSH0 PUSH2 0x8FB PUSH1 0xB DUP4 PUSH2 0x7B4 JUMP JUMPDEST SWAP2 POP PUSH2 0x906 DUP3 PUSH2 0x8C7 JUMP JUMPDEST PUSH1 0x20 DUP3 ADD SWAP1 POP SWAP2 SWAP1 POP JUMP JUMPDEST PUSH0 PUSH1 0x20 DUP3 ADD SWAP1 POP DUP2 DUP2 SUB PUSH0 DUP4 ADD MSTORE PUSH2 0x928 DUP2 PUSH2 0x8EF JUMP JUMPDEST SWAP1 POP SWAP2 SWAP1 POP JUMP JUMPDEST PUSH32 0x4E6F7420656E6F756768204554482070726F7669646564000000000000000000 PUSH0 DUP3 ADD MSTORE POP JUMP JUMPDEST PUSH0 PUSH2 0x963 PUSH1 0x17 DUP4 PUSH2 0x7B4 JUMP JUMPDEST SWAP2 POP PUSH2 0x96E DUP3 PUSH2 0x92F JUMP JUMPDEST PUSH1 0x20 DUP3 ADD SWAP1 POP SWAP2 SWAP1 POP JUMP JUMPDEST PUSH0 PUSH1 0x20 DUP3 ADD SWAP1 POP DUP2 DUP2 SUB PUSH0 DUP4 ADD MSTORE PUSH2 0x990 DUP2 PUSH2 0x957 JUMP JUMPDEST SWAP1 POP SWAP2 SWAP1 POP JUMP JUMPDEST PUSH32 0x4E487B7100000000000000000000000000000000000000000000000000000000 PUSH0 MSTORE PUSH1 0x11 PUSH1 0x4 MSTORE PUSH1 0x24 PUSH0 REVERT JUMPDEST PUSH0 PUSH2 0x9CE DUP3 PUSH2 0x706 JUMP JUMPDEST SWAP2 POP PUSH2 0x9D9 DUP4 PUSH2 0x706 JUMP JUMPDEST SWAP3 POP DUP3 DUP3 ADD SWAP1 POP DUP1 DUP3 GT ISZERO PUSH2 0x9F1 JUMPI PUSH2 0x9F0 PUSH2 0x997 JUMP JUMPDEST JUMPDEST SWAP3 SWAP2 POP POP JUMP JUMPDEST PUSH0 PUSH2 0xA01 DUP3 PUSH2 0x706 JUMP JUMPDEST SWAP2 POP PUSH2 0xA0C DUP4 PUSH2 0x706 JUMP JUMPDEST SWAP3 POP DUP3 DUP3 MUL PUSH2 0xA1A DUP2 PUSH2 0x706 JUMP JUMPDEST SWAP2 POP DUP3 DUP3 DIV DUP5 EQ DUP4 ISZERO OR PUSH2 0xA31 JUMPI PUSH2 0xA30 PUSH2 0x997 JUMP JUMPDEST JUMPDEST POP SWAP3 SWAP2 POP POP JUMP JUMPDEST PUSH32 0x4E487B7100000000000000000000000000000000000000000000000000000000 PUSH0 MSTORE PUSH1 0x12 PUSH1 0x4 MSTORE PUSH1 0x24 PUSH0 REVERT JUMPDEST PUSH0 PUSH2 0xA6F DUP3 PUSH2 0x706 JUMP JUMPDEST SWAP2 POP PUSH2 0xA7A DUP4 PUSH2 0x706 JUMP JUMPDEST SWAP3 POP DUP3 PUSH2 0xA8A JUMPI PUSH2 0xA89 PUSH2 0xA38 JUMP JUMPDEST JUMPDEST DUP3 DUP3 DIV SWAP1 POP SWAP3 SWAP2 POP POP JUMP JUMPDEST PUSH0 PUSH10 0xFFFFFFFFFFFFFFFFFFFF DUP3 AND SWAP1 POP SWAP2 SWAP1 POP JUMP JUMPDEST PUSH2 0xAB3 DUP2 PUSH2 0xA95 JUMP JUMPDEST DUP2 EQ PUSH2 0xABD JUMPI PUSH0 DUP1 REVERT JUMPDEST POP JUMP JUMPDEST PUSH0 DUP2 MLOAD SWAP1 POP PUSH2 0xACE DUP2 PUSH2 0xAAA JUMP JUMPDEST SWAP3 SWAP2 POP POP JUMP JUMPDEST PUSH0 DUP2 SWAP1 POP SWAP2 SWAP1 POP JUMP JUMPDEST PUSH2 0xAE6 DUP2 PUSH2 0xAD4 JUMP JUMPDEST DUP2 EQ PUSH2 0xAF0 JUMPI PUSH0 DUP1 REVERT JUMPDEST POP JUMP JUMPDEST PUSH0 DUP2 MLOAD SWAP1 POP PUSH2 0xB01 DUP2 PUSH2 0xADD JUMP JUMPDEST SWAP3 SWAP2 POP POP JUMP JUMPDEST PUSH0 DUP2 MLOAD SWAP1 POP PUSH2 0xB15 DUP2 PUSH2 0x75F JUMP JUMPDEST SWAP3 SWAP2 POP POP JUMP JUMPDEST PUSH0 DUP1 PUSH0 DUP1 PUSH0 PUSH1 0xA0 DUP7 DUP9 SUB SLT ISZERO PUSH2 0xB34 JUMPI PUSH2 0xB33 PUSH2 0x67D JUMP JUMPDEST JUMPDEST PUSH0 PUSH2 0xB41 DUP9 DUP3 DUP10 ADD PUSH2 0xAC0 JUMP JUMPDEST SWAP6 POP POP PUSH1 0x20 PUSH2 0xB52 DUP9 DUP3 DUP10 ADD PUSH2 0xAF3 JUMP JUMPDEST SWAP5 POP POP PUSH1 0x40 PUSH2 0xB63 DUP9 DUP3 DUP10 ADD PUSH2 0xB07 JUMP JUMPDEST SWAP4 POP POP PUSH1 0x60 PUSH2 0xB74 DUP9 DUP3 DUP10 ADD PUSH2 0xB07 JUMP JUMPDEST SWAP3 POP POP PUSH1 0x80 PUSH2 0xB85 DUP9 DUP3 DUP10 ADD PUSH2 0xAC0 JUMP JUMPDEST SWAP2 POP POP SWAP3 SWAP6 POP SWAP3 SWAP6 SWAP1 SWAP4 POP JUMP JUMPDEST PUSH0 PUSH2 0xB9C DUP3 PUSH2 0xAD4 JUMP JUMPDEST SWAP2 POP PUSH2 0xBA7 DUP4 PUSH2 0xAD4 JUMP JUMPDEST SWAP3 POP DUP3 DUP3 MUL PUSH2 0xBB5 DUP2 PUSH2 0xAD4 JUMP JUMPDEST SWAP2 POP PUSH32 0x8000000000000000000000000000000000000000000000000000000000000000 DUP5 EQ PUSH0 DUP5 SLT AND ISZERO PUSH2 0xBEC JUMPI PUSH2 0xBEB PUSH2 0x997 JUMP JUMPDEST JUMPDEST DUP3 DUP3 SDIV DUP5 EQ DUP4 ISZERO OR PUSH2 0xC01 JUMPI PUSH2 0xC00 PUSH2 0x997 JUMP JUMPDEST JUMPDEST POP SWAP3 SWAP2 POP POP JUMP INVALID LOG2 PUSH5 0x6970667358 0x22 SLT KECCAK256 JUMPDEST PUSH23 0xCB5A946F3A6D70C3148DB2F5367348417C1004B69B36CB PUSH4 0x6DBA8F6D SLOAD DUP10 PUSH5 0x736F6C6343 STOP ADDMOD NOT STOP CALLER "
				},
				"gasEstimates": {
					"creation": {
						"codeDepositCost": "626800",
						"executionCost": "infinite",
						"totalCost": "infinite"
					},
					"external": {
						"MINIMUM_USD()": "347",
						"addressToAmountFunded(address)": "2802",
						"fund()": "infinite",
						"funders(uint256)": "5031",
						"i_owner()": "infinite",
						"withdraw()": "infinite"
					}
				},
				"methodIdentifiers": {
					"MINIMUM_USD()": "6b69a592",
					"addressToAmountFunded(address)": "3e47d6f3",
					"fund()": "b60d4288",
					"funders(uint256)": "dc0d3dff",
					"i_owner()": "dba6335f",
					"withdraw()": "3ccfd60b"
				}
			},
			"storageLayout": {
				"storage": [
					{
						"astId": 58,
						"contract": "FundMe.sol:FundMe",
						"label": "funders",
						"offset": 0,
						"slot": "0",
						"type": "t_array(t_address)dyn_storage"
					},
					{
						"astId": 64,
						"contract": "FundMe.sol:FundMe",
						"label": "addressToAmountFunded",
						"offset": 0,
						"slot": "1",
						"type": "t_mapping(t_address,t_uint256)"
					}
				],
				"types": {
					"t_address": {
						"encoding": "inplace",
						"label": "address",
						"numberOfBytes": "20"
					},
					"t_array(t_address)dyn_storage": {
						"base": "t_address",
						"encoding": "dynamic_array",
						"label": "address[]",
						"numberOfBytes": "32"
					},
					"t_mapping(t_address,t_uint256)": {
						"encoding": "mapping",
						"key": "t_address",
						"label": "mapping(address => uint256)",
						"numberOfBytes": "32",
						"value": "t_uint256"
					},
					"t_uint256": {
						"encoding": "inplace",
						"label": "uint256",
						"numberOfBytes": "32"
					}
				}
			},
			"userdoc": {
				"kind": "user",
				"methods": {},
				"version": 1
			}
		}
	}
}